{
  "_format": "hh-sol-artifact-1",
  "contractName": "MiddlemanVault",
  "sourceName": "contracts/MiddlemanVault.sol",
  "abi": [
    {
      "inputs": [
        {
          "internalType": "address",
          "name": "_usdc",
          "type": "address"
        },
        {
          "internalType": "address",
          "name": "_backendWallet",
          "type": "address"
        }
      ],
      "stateMutability": "nonpayable",
      "type": "constructor"
    },
    {
      "inputs": [
        {
          "internalType": "address",
          "name": "owner",
          "type": "address"
        }
      ],
      "name": "OwnableInvalidOwner",
      "type": "error"
    },
    {
      "inputs": [
        {
          "internalType": "address",
          "name": "account",
          "type": "address"
        }
      ],
      "name": "OwnableUnauthorizedAccount",
      "type": "error"
    },
    {
      "inputs": [],
      "name": "ReentrancyGuardReentrantCall",
      "type": "error"
    },
    {
      "anonymous": false,
      "inputs": [
        {
          "indexed": false,
          "internalType": "address",
          "name": "newWallet",
          "type": "address"
        }
      ],
      "name": "BackendWalletUpdated",
      "type": "event"
    },
    {
      "anonymous": false,
      "inputs": [
        {
          "indexed": true,
          "internalType": "address",
          "name": "user",
          "type": "address"
        },
        {
          "indexed": false,
          "internalType": "uint256",
          "name": "amount",
          "type": "uint256"
        }
      ],
      "name": "Deposited",
      "type": "event"
    },
    {
      "anonymous": false,
      "inputs": [
        {
          "indexed": true,
          "internalType": "address",
          "name": "previousOwner",
          "type": "address"
        },
        {
          "indexed": true,
          "internalType": "address",
          "name": "newOwner",
          "type": "address"
        }
      ],
      "name": "OwnershipTransferred",
      "type": "event"
    },
    {
      "anonymous": false,
      "inputs": [
        {
          "indexed": true,
          "internalType": "address",
          "name": "recipient",
          "type": "address"
        },
        {
          "indexed": false,
          "internalType": "uint256",
          "name": "amount",
          "type": "uint256"
        }
      ],
      "name": "PaidOut",
      "type": "event"
    },
    {
      "inputs": [],
      "name": "backendWallet",
      "outputs": [
        {
          "internalType": "address",
          "name": "",
          "type": "address"
        }
      ],
      "stateMutability": "view",
      "type": "function"
    },
    {
      "inputs": [
        {
          "internalType": "uint256",
          "name": "amount",
          "type": "uint256"
        }
      ],
      "name": "deposit",
      "outputs": [],
      "stateMutability": "nonpayable",
      "type": "function"
    },
    {
      "inputs": [
        {
          "internalType": "address",
          "name": "token",
          "type": "address"
        },
        {
          "internalType": "uint256",
          "name": "amount",
          "type": "uint256"
        }
      ],
      "name": "emergencyWithdraw",
      "outputs": [],
      "stateMutability": "nonpayable",
      "type": "function"
    },
    {
      "inputs": [],
      "name": "owner",
      "outputs": [
        {
          "internalType": "address",
          "name": "",
          "type": "address"
        }
      ],
      "stateMutability": "view",
      "type": "function"
    },
    {
      "inputs": [
        {
          "internalType": "address",
          "name": "recipient",
          "type": "address"
        },
        {
          "internalType": "uint256",
          "name": "amount",
          "type": "uint256"
        }
      ],
      "name": "payout",
      "outputs": [],
      "stateMutability": "nonpayable",
      "type": "function"
    },
    {
      "inputs": [],
      "name": "renounceOwnership",
      "outputs": [],
      "stateMutability": "nonpayable",
      "type": "function"
    },
    {
      "inputs": [
        {
          "internalType": "address",
          "name": "_newWallet",
          "type": "address"
        }
      ],
      "name": "setBackendWallet",
      "outputs": [],
      "stateMutability": "nonpayable",
      "type": "function"
    },
    {
      "inputs": [
        {
          "internalType": "address",
          "name": "newOwner",
          "type": "address"
        }
      ],
      "name": "transferOwnership",
      "outputs": [],
      "stateMutability": "nonpayable",
      "type": "function"
    },
    {
      "inputs": [],
      "name": "usdc",
      "outputs": [
        {
          "internalType": "contract IERC20",
          "name": "",
          "type": "address"
        }
      ],
      "stateMutability": "view",
      "type": "function"
    }
  ],
  "bytecode": "0x60806040523480156200001157600080fd5b50604051620012043803806200120483398181016040528101906200003791906200027e565b33600073ffffffffffffffffffffffffffffffffffffffff168173ffffffffffffffffffffffffffffffffffffffff1603620000ad5760006040517f1e4fbdf7000000000000000000000000000000000000000000000000000000008152600401620000a49190620002d6565b60405180910390fd5b620000be816200015060201b60201c565b506001808190555081600260006101000a81548173ffffffffffffffffffffffffffffffffffffffff021916908373ffffffffffffffffffffffffffffffffffffffff16021790555080600360006101000a81548173ffffffffffffffffffffffffffffffffffffffff021916908373ffffffffffffffffffffffffffffffffffffffff1602179055505050620002f3565b60008060009054906101000a900473ffffffffffffffffffffffffffffffffffffffff169050816000806101000a81548173ffffffffffffffffffffffffffffffffffffffff021916908373ffffffffffffffffffffffffffffffffffffffff1602179055508173ffffffffffffffffffffffffffffffffffffffff168173ffffffffffffffffffffffffffffffffffffffff167f8be0079c531659141344cd1fd0a4f28419497f9722a3daafe3b4186f6b6457e060405160405180910390a35050565b600080fd5b600073ffffffffffffffffffffffffffffffffffffffff82169050919050565b6000620002468262000219565b9050919050565b620002588162000239565b81146200026457600080fd5b50565b60008151905062000278816200024d565b92915050565b6000806040838503121562000298576200029762000214565b5b6000620002a88582860162000267565b9250506020620002bb8582860162000267565b9150509250929050565b620002d08162000239565b82525050565b6000602082019050620002ed6000830184620002c5565b92915050565b610f0180620003036000396000f3fe608060405234801561001057600080fd5b50600436106100935760003560e01c80638da5cb5b116100665780638da5cb5b146100f857806395ccea6714610116578063a680baaf14610132578063b6b55f2514610150578063f2fde38b1461016c57610093565b80630edfe7ec14610098578063117de2fd146100b45780633e413bee146100d0578063715018a6146100ee575b600080fd5b6100b260048036038101906100ad9190610a65565b610188565b005b6100ce60048036038101906100c99190610ac8565b61020b565b005b6100d861053a565b6040516100e59190610b67565b60405180910390f35b6100f6610560565b005b610100610574565b60405161010d9190610b91565b60405180910390f35b610130600480360381019061012b9190610ac8565b61059d565b005b61013a61062f565b6040516101479190610b91565b60405180910390f35b61016a60048036038101906101659190610bac565b610655565b005b61018660048036038101906101819190610a65565b6107da565b005b610190610860565b80600360006101000a81548173ffffffffffffffffffffffffffffffffffffffff021916908373ffffffffffffffffffffffffffffffffffffffff1602179055507fbd6dba6aca0dad66c22b67c54f8a8cfaf19585378b66c35632e1dd80c6d7dc51816040516102009190610b91565b60405180910390a150565b600360009054906101000a900473ffffffffffffffffffffffffffffffffffffffff1673ffffffffffffffffffffffffffffffffffffffff163373ffffffffffffffffffffffffffffffffffffffff161480610299575061026a610574565b73ffffffffffffffffffffffffffffffffffffffff163373ffffffffffffffffffffffffffffffffffffffff16145b6102d8576040517f08c379a00000000000000000000000000000000000000000000000000000000081526004016102cf90610c36565b60405180910390fd5b6102e06108e7565b60008111610323576040517f08c379a000000000000000000000000000000000000000000000000000000000815260040161031a90610ca2565b60405180910390fd5b80600260009054906101000a900473ffffffffffffffffffffffffffffffffffffffff1673ffffffffffffffffffffffffffffffffffffffff166370a08231306040518263ffffffff1660e01b815260040161037f9190610b91565b602060405180830381865afa15801561039c573d6000803e3d6000fd5b505050506040513d601f19601f820116820180604052508101906103c09190610cd7565b1015610401576040517f08c379a00000000000000000000000000000000000000000000000000000000081526004016103f890610d50565b60405180910390fd5b600260009054906101000a900473ffffffffffffffffffffffffffffffffffffffff1673ffffffffffffffffffffffffffffffffffffffff1663a9059cbb83836040518363ffffffff1660e01b815260040161045e929190610d7f565b6020604051808303816000875af115801561047d573d6000803e3d6000fd5b505050506040513d601f19601f820116820180604052508101906104a19190610de0565b6104e0576040517f08c379a00000000000000000000000000000000000000000000000000000000081526004016104d790610e59565b60405180910390fd5b8173ffffffffffffffffffffffffffffffffffffffff167f85614384dd52aa71c3b02d6986abe55274cb38b9b13fc323db17de1b950c2727826040516105269190610e79565b60405180910390a261053661092d565b5050565b600260009054906101000a900473ffffffffffffffffffffffffffffffffffffffff1681565b610568610860565b6105726000610936565b565b60008060009054906101000a900473ffffffffffffffffffffffffffffffffffffffff16905090565b6105a5610860565b8173ffffffffffffffffffffffffffffffffffffffff1663a9059cbb6105c9610574565b836040518363ffffffff1660e01b81526004016105e7929190610d7f565b6020604051808303816000875af1158015610606573d6000803e3d6000fd5b505050506040513d601f19601f8201168201806040525081019061062a9190610de0565b505050565b600360009054906101000a900473ffffffffffffffffffffffffffffffffffffffff1681565b61065d6108e7565b600081116106a0576040517f08c379a000000000000000000000000000000000000000000000000000000000815260040161069790610ca2565b60405180910390fd5b600260009054906101000a900473ffffffffffffffffffffffffffffffffffffffff1673ffffffffffffffffffffffffffffffffffffffff166323b872dd3330846040518463ffffffff1660e01b81526004016106ff93929190610e94565b6020604051808303816000875af115801561071e573d6000803e3d6000fd5b505050506040513d601f19601f820116820180604052508101906107429190610de0565b610781576040517f08c379a000000000000000000000000000000000000000000000000000000000815260040161077890610e59565b60405180910390fd5b3373ffffffffffffffffffffffffffffffffffffffff167f2da466a7b24304f47e87fa2e1e5a81b9831ce54fec19055ce277ca2f39ba42c4826040516107c79190610e79565b60405180910390a26107d761092d565b50565b6107e2610860565b600073ffffffffffffffffffffffffffffffffffffffff168173ffffffffffffffffffffffffffffffffffffffff16036108545760006040517f1e4fbdf700000000000000000000000000000000000000000000000000000000815260040161084b9190610b91565b60405180910390fd5b61085d81610936565b50565b6108686109fa565b73ffffffffffffffffffffffffffffffffffffffff16610886610574565b73ffffffffffffffffffffffffffffffffffffffff16146108e5576108a96109fa565b6040517f118cdaa70000000000000000000000000000000000000000000000000000000081526004016108dc9190610b91565b60405180910390fd5b565b600260015403610923576040517f3ee5aeb500000000000000000000000000000000000000000000000000000000815260040160405180910390fd5b6002600181905550565b60018081905550565b60008060009054906101000a900473ffffffffffffffffffffffffffffffffffffffff169050816000806101000a81548173ffffffffffffffffffffffffffffffffffffffff021916908373ffffffffffffffffffffffffffffffffffffffff1602179055508173ffffffffffffffffffffffffffffffffffffffff168173ffffffffffffffffffffffffffffffffffffffff167f8be0079c531659141344cd1fd0a4f28419497f9722a3daafe3b4186f6b6457e060405160405180910390a35050565b600033905090565b600080fd5b600073ffffffffffffffffffffffffffffffffffffffff82169050919050565b6000610a3282610a07565b9050919050565b610a4281610a27565b8114610a4d57600080fd5b50565b600081359050610a5f81610a39565b92915050565b600060208284031215610a7b57610a7a610a02565b5b6000610a8984828501610a50565b91505092915050565b6000819050919050565b610aa581610a92565b8114610ab057600080fd5b50565b600081359050610ac281610a9c565b92915050565b60008060408385031215610adf57610ade610a02565b5b6000610aed85828601610a50565b9250506020610afe85828601610ab3565b9150509250929050565b6000819050919050565b6000610b2d610b28610b2384610a07565b610b08565b610a07565b9050919050565b6000610b3f82610b12565b9050919050565b6000610b5182610b34565b9050919050565b610b6181610b46565b82525050565b6000602082019050610b7c6000830184610b58565b92915050565b610b8b81610a27565b82525050565b6000602082019050610ba66000830184610b82565b92915050565b600060208284031215610bc257610bc1610a02565b5b6000610bd084828501610ab3565b91505092915050565b600082825260208201905092915050565b7f4e6f7420617574686f72697a6564000000000000000000000000000000000000600082015250565b6000610c20600e83610bd9565b9150610c2b82610bea565b602082019050919050565b60006020820190508181036000830152610c4f81610c13565b9050919050565b7f416d6f756e74206d757374206265203e20300000000000000000000000000000600082015250565b6000610c8c601283610bd9565b9150610c9782610c56565b602082019050919050565b60006020820190508181036000830152610cbb81610c7f565b9050919050565b600081519050610cd181610a9c565b92915050565b600060208284031215610ced57610cec610a02565b5b6000610cfb84828501610cc2565b91505092915050565b7f496e73756666696369656e742066756e647320696e207661756c740000000000600082015250565b6000610d3a601b83610bd9565b9150610d4582610d04565b602082019050919050565b60006020820190508181036000830152610d6981610d2d565b9050919050565b610d7981610a92565b82525050565b6000604082019050610d946000830185610b82565b610da16020830184610d70565b9392505050565b60008115159050919050565b610dbd81610da8565b8114610dc857600080fd5b50565b600081519050610dda81610db4565b92915050565b600060208284031215610df657610df5610a02565b5b6000610e0484828501610dcb565b91505092915050565b7f5472616e73666572206661696c65640000000000000000000000000000000000600082015250565b6000610e43600f83610bd9565b9150610e4e82610e0d565b602082019050919050565b60006020820190508181036000830152610e7281610e36565b9050919050565b6000602082019050610e8e6000830184610d70565b92915050565b6000606082019050610ea96000830186610b82565b610eb66020830185610b82565b610ec36040830184610d70565b94935050505056fea264697066735822122030c61d2239f81b5683d8fafab9e33bbe4e1de029d8f7d5aab6062a2ac90ebc1a64736f6c63430008180033",
  "linkReferences": {},
  "deployedLinkReferences": {}
}