{"contracts/PokerGameManager.sol":{"PokerGameManager":{"abi":[{"inputs":[{"internalType":"address","name":"_usdc","type":"address"},{"internalType":"address","name":"_reputationNFT","type":"address"}],"stateMutability":"nonpayable","type":"constructor"},{"inputs":[{"internalType":"address","name":"owner","type":"address"}],"name":"OwnableInvalidOwner","type":"error"},{"inputs":[{"internalType":"address","name":"account","type":"address"}],"name":"OwnableUnauthorizedAccount","type":"error"},{"inputs":[],"name":"ReentrancyGuardReentrantCall","type":"error"},{"anonymous":false,"inputs":[{"indexed":true,"internalType":"uint256","name":"gameId","type":"uint256"},{"indexed":false,"internalType":"uint256","name":"buyIn","type":"uint256"}],"name":"GameCreated","type":"event"},{"anonymous":false,"inputs":[{"indexed":true,"internalType":"uint256","name":"gameId","type":"uint256"},{"indexed":false,"internalType":"address[]","name":"winners","type":"address[]"},{"indexed":false,"internalType":"uint256[]","name":"payouts","type":"uint256[]"}],"name":"GameFinalized","type":"event"},{"anonymous":false,"inputs":[{"indexed":true,"internalType":"address","name":"previousOwner","type":"address"},{"indexed":true,"internalType":"address","name":"newOwner","type":"address"}],"name":"OwnershipTransferred","type":"event"},{"anonymous":false,"inputs":[{"indexed":true,"internalType":"uint256","name":"gameId","type":"uint256"},{"indexed":true,"internalType":"address","name":"player","type":"address"}],"name":"PlayerJoined","type":"event"},{"inputs":[{"internalType":"uint256","name":"gameId","type":"uint256"},{"internalType":"uint256","name":"buyIn","type":"uint256"}],"name":"createGame","outputs":[],"stateMutability":"nonpayable","type":"function"},{"inputs":[{"internalType":"address","name":"token","type":"address"},{"internalType":"uint256","name":"amount","type":"uint256"}],"name":"emergencyWithdraw","outputs":[],"stateMutability":"nonpayable","type":"function"},{"inputs":[{"internalType":"uint256","name":"gameId","type":"uint256"},{"internalType":"address[]","name":"winners","type":"address[]"},{"internalType":"uint256[]","name":"payouts","type":"uint256[]"}],"name":"finalizeGame","outputs":[],"stateMutability":"nonpayable","type":"function"},{"inputs":[{"internalType":"uint256","name":"","type":"uint256"}],"name":"games","outputs":[{"internalType":"uint256","name":"id","type":"uint256"},{"internalType":"uint256","name":"buyIn","type":"uint256"},{"internalType":"uint256","name":"totalPot","type":"uint256"},{"internalType":"bool","name":"isActive","type":"bool"}],"stateMutability":"view","type":"function"},{"inputs":[{"internalType":"uint256","name":"","type":"uint256"},{"internalType":"address","name":"","type":"address"}],"name":"hasJoined","outputs":[{"internalType":"bool","name":"","type":"bool"}],"stateMutability":"view","type":"function"},{"inputs":[{"internalType":"uint256","name":"gameId","type":"uint256"}],"name":"joinGame","outputs":[],"stateMutability":"nonpayable","type":"function"},{"inputs":[],"name":"owner","outputs":[{"internalType":"address","name":"","type":"address"}],"stateMutability":"view","type":"function"},{"inputs":[],"name":"renounceOwnership","outputs":[],"stateMutability":"nonpayable","type":"function"},{"inputs":[],"name":"reputationNFT","outputs":[{"internalType":"contract ReputationNFT","name":"","type":"address"}],"stateMutability":"view","type":"function"},{"inputs":[{"internalType":"address","name":"newOwner","type":"address"}],"name":"transferOwnership","outputs":[],"stateMutability":"nonpayable","type":"function"},{"inputs":[],"name":"usdc","outputs":[{"internalType":"contract IERC20","name":"","type":"address"}],"stateMutability":"view","type":"function"}],"evm":{"bytecode":{"linkReferences":{},"object":"60806040523480156200001157600080fd5b5060405162001c7838038062001c7883398181016040528101906200003791906200027e565b33600073ffffffffffffffffffffffffffffffffffffffff168173ffffffffffffffffffffffffffffffffffffffff1603620000ad5760006040517f1e4fbdf7000000000000000000000000000000000000000000000000000000008152600401620000a49190620002d6565b60405180910390fd5b620000be816200015060201b60201c565b506001808190555081600260006101000a81548173ffffffffffffffffffffffffffffffffffffffff021916908373ffffffffffffffffffffffffffffffffffffffff16021790555080600360006101000a81548173ffffffffffffffffffffffffffffffffffffffff021916908373ffffffffffffffffffffffffffffffffffffffff1602179055505050620002f3565b60008060009054906101000a900473ffffffffffffffffffffffffffffffffffffffff169050816000806101000a81548173ffffffffffffffffffffffffffffffffffffffff021916908373ffffffffffffffffffffffffffffffffffffffff1602179055508173ffffffffffffffffffffffffffffffffffffffff168173ffffffffffffffffffffffffffffffffffffffff167f8be0079c531659141344cd1fd0a4f28419497f9722a3daafe3b4186f6b6457e060405160405180910390a35050565b600080fd5b600073ffffffffffffffffffffffffffffffffffffffff82169050919050565b6000620002468262000219565b9050919050565b620002588162000239565b81146200026457600080fd5b50565b60008151905062000278816200024d565b92915050565b6000806040838503121562000298576200029762000214565b5b6000620002a88582860162000267565b9250506020620002bb8582860162000267565b9150509250929050565b620002d08162000239565b82525050565b6000602082019050620002ed6000830184620002c5565b92915050565b61197580620003036000396000f3fe608060405234801561001057600080fd5b50600436106100a95760003560e01c80638da5cb5b116100715780638da5cb5b1461015557806395ccea6714610173578063a06f8c9d1461018f578063efaa55a0146101ab578063f2fde38b146101c7578063fa488649146101e3576100a9565b8063117a5b90146100ae5780633e413bee146100e157806360104cef146100ff578063681947191461011b578063715018a61461014b575b600080fd5b6100c860048036038101906100c39190610e5d565b610201565b6040516100d89493929190610eb4565b60405180910390f35b6100e961023e565b6040516100f69190610f78565b60405180910390f35b61011960048036038101906101149190610f93565b610264565b005b61013560048036038101906101309190611011565b610340565b6040516101429190611051565b60405180910390f35b61015361036f565b005b61015d610383565b60405161016a919061107b565b60405180910390f35b61018d60048036038101906101889190611096565b6103ac565b005b6101a960048036038101906101a49190611191565b61043e565b005b6101c560048036038101906101c09190610e5d565b6107ff565b005b6101e160048036038101906101dc9190611226565b610bcf565b005b6101eb610c55565b6040516101f89190611274565b60405180910390f35b60046020528060005260406000206000915090508060000154908060010154908060020154908060030160009054906101000a900460ff16905084565b600260009054906101000a900473ffffffffffffffffffffffffffffffffffffffff1681565b60006004600084815260200190815260200160002060000154146102bd576040517f08c379a00000000000000000000000000000000000000000000000000000000081526004016102b4906112ec565b60405180910390fd5b600060046000848152602001908152602001600020905082816000018190555081816001018190555060018160030160006101000a81548160ff021916908315150217905550827fa26856d25e558c79e1632806bc6824075cf59885a115825f2aab62385a3f714283604051610333919061130c565b60405180910390a2505050565b60056020528160005260406000206020528060005260406000206000915091509054906101000a900460ff1681565b610377610c7b565b6103816000610d02565b565b60008060009054906101000a900473ffffffffffffffffffffffffffffffffffffffff16905090565b6103b4610c7b565b8173ffffffffffffffffffffffffffffffffffffffff1663a9059cbb6103d8610383565b836040518363ffffffff1660e01b81526004016103f6929190611327565b6020604051808303816000875af1158015610415573d6000803e3d6000fd5b505050506040513d601f19601f82011682018060405250810190610439919061137c565b505050565b610446610c7b565b61044e610dc6565b60006004600087815260200190815260200160002090508060030160009054906101000a900460ff166104b6576040517f08c379a00000000000000000000000000000000000000000000000000000000081526004016104ad906113f5565b60405180910390fd5b8282905085859050146104fe576040517f08c379a00000000000000000000000000000000000000000000000000000000081526004016104f590611461565b60405180910390fd5b6000805b84849050811015610541578484828181106105205761051f611481565b5b905060200201358261053291906114df565b91508080600101915050610502565b508160020154811115610589576040517f08c379a00000000000000000000000000000000000000000000000000000000081526004016105809061155f565b60405180910390fd5b60008260030160006101000a81548160ff02191690831515021790555060005b868690508110156107af57600260009054906101000a900473ffffffffffffffffffffffffffffffffffffffff1673ffffffffffffffffffffffffffffffffffffffff1663a9059cbb88888481811061060557610604611481565b5b905060200201602081019061061a9190611226565b87878581811061062d5761062c611481565b5b905060200201356040518363ffffffff1660e01b8152600401610651929190611327565b6020604051808303816000875af1158015610670573d6000803e3d6000fd5b505050506040513d601f19601f82011682018060405250810190610694919061137c565b6106d3576040517f08c379a00000000000000000000000000000000000000000000000000000000081526004016106ca906115cb565b60405180910390fd5b600360009054906101000a900473ffffffffffffffffffffffffffffffffffffffff1673ffffffffffffffffffffffffffffffffffffffff166392b7035d88888481811061072457610723611481565b5b90506020020160208101906107399190611226565b600188888681811061074e5761074d611481565b5b90506020020135600a6040518563ffffffff1660e01b81526004016107769493929190611630565b600060405180830381600087803b15801561079057600080fd5b505af19250505080156107a1575060015b5080806001019150506105a9565b50867f06affe9f3149ed790696bfb6d1d89f37674691839ff296c6ef6289bc51c1060b878787876040516107e694939291906117b3565b60405180910390a250506107f8610e0c565b5050505050565b610807610dc6565b60006004600083815260200190815260200160002090508060030160009054906101000a900460ff1661086f576040517f08c379a0000000000000000000000000000000000000000000000000000000008152600401610866906113f5565b60405180910390fd5b6005600083815260200190815260200160002060003373ffffffffffffffffffffffffffffffffffffffff1673ffffffffffffffffffffffffffffffffffffffff16815260200190815260200160002060009054906101000a900460ff161561090d576040517f08c379a00000000000000000000000000000000000000000000000000000000081526004016109049061183a565b60405180910390fd5b600260009054906101000a900473ffffffffffffffffffffffffffffffffffffffff1673ffffffffffffffffffffffffffffffffffffffff166323b872dd333084600101546040518463ffffffff1660e01b81526004016109709392919061185a565b6020604051808303816000875af115801561098f573d6000803e3d6000fd5b505050506040513d601f19601f820116820180604052508101906109b3919061137c565b6109f2576040517f08c379a00000000000000000000000000000000000000000000000000000000081526004016109e9906118dd565b60405180910390fd5b80600401339080600181540180825580915050600190039060005260206000200160009091909190916101000a81548173ffffffffffffffffffffffffffffffffffffffff021916908373ffffffffffffffffffffffffffffffffffffffff1602179055508060010154816002016000828254610a6f91906114df565b9250508190555060016005600084815260200190815260200160002060003373ffffffffffffffffffffffffffffffffffffffff1673ffffffffffffffffffffffffffffffffffffffff16815260200190815260200160002060006101000a81548160ff0219169083151502179055506000600360009054906101000a900473ffffffffffffffffffffffffffffffffffffffff1673ffffffffffffffffffffffffffffffffffffffff16636511bf2e336040518263ffffffff1660e01b8152600401610b3c919061107b565b602060405180830381865afa158015610b59573d6000803e3d6000fd5b505050506040513d601f19601f82011682018060405250810190610b7d9190611912565b50503373ffffffffffffffffffffffffffffffffffffffff16827f87969bc7faf902221a147b95ceba76e011c5efb0339a0a8ee7a2bb82d9cfbbd660405160405180910390a350610bcc610e0c565b50565b610bd7610c7b565b600073ffffffffffffffffffffffffffffffffffffffff168173ffffffffffffffffffffffffffffffffffffffff1603610c495760006040517f1e4fbdf7000000000000000000000000000000000000000000000000000000008152600401610c40919061107b565b60405180910390fd5b610c5281610d02565b50565b600360009054906101000a900473ffffffffffffffffffffffffffffffffffffffff1681565b610c83610e15565b73ffffffffffffffffffffffffffffffffffffffff16610ca1610383565b73ffffffffffffffffffffffffffffffffffffffff1614610d0057610cc4610e15565b6040517f118cdaa7000000000000000000000000000000000000000000000000000000008152600401610cf7919061107b565b60405180910390fd5b565b60008060009054906101000a900473ffffffffffffffffffffffffffffffffffffffff169050816000806101000a81548173ffffffffffffffffffffffffffffffffffffffff021916908373ffffffffffffffffffffffffffffffffffffffff1602179055508173ffffffffffffffffffffffffffffffffffffffff168173ffffffffffffffffffffffffffffffffffffffff167f8be0079c531659141344cd1fd0a4f28419497f9722a3daafe3b4186f6b6457e060405160405180910390a35050565b600260015403610e02576040517f3ee5aeb500000000000000000000000000000000000000000000000000000000815260040160405180910390fd5b6002600181905550565b60018081905550565b600033905090565b600080fd5b600080fd5b6000819050919050565b610e3a81610e27565b8114610e4557600080fd5b50565b600081359050610e5781610e31565b92915050565b600060208284031215610e7357610e72610e1d565b5b6000610e8184828501610e48565b91505092915050565b610e9381610e27565b82525050565b60008115159050919050565b610eae81610e99565b82525050565b6000608082019050610ec96000830187610e8a565b610ed66020830186610e8a565b610ee36040830185610e8a565b610ef06060830184610ea5565b95945050505050565b600073ffffffffffffffffffffffffffffffffffffffff82169050919050565b6000819050919050565b6000610f3e610f39610f3484610ef9565b610f19565b610ef9565b9050919050565b6000610f5082610f23565b9050919050565b6000610f6282610f45565b9050919050565b610f7281610f57565b82525050565b6000602082019050610f8d6000830184610f69565b92915050565b60008060408385031215610faa57610fa9610e1d565b5b6000610fb885828601610e48565b9250506020610fc985828601610e48565b9150509250929050565b6000610fde82610ef9565b9050919050565b610fee81610fd3565b8114610ff957600080fd5b50565b60008135905061100b81610fe5565b92915050565b6000806040838503121561102857611027610e1d565b5b600061103685828601610e48565b925050602061104785828601610ffc565b9150509250929050565b60006020820190506110666000830184610ea5565b92915050565b61107581610fd3565b82525050565b6000602082019050611090600083018461106c565b92915050565b600080604083850312156110ad576110ac610e1d565b5b60006110bb85828601610ffc565b92505060206110cc85828601610e48565b9150509250929050565b600080fd5b600080fd5b600080fd5b60008083601f8401126110fb576110fa6110d6565b5b8235905067ffffffffffffffff811115611118576111176110db565b5b602083019150836020820283011115611134576111336110e0565b5b9250929050565b60008083601f840112611151576111506110d6565b5b8235905067ffffffffffffffff81111561116e5761116d6110db565b5b60208301915083602082028301111561118a576111896110e0565b5b9250929050565b6000806000806000606086880312156111ad576111ac610e1d565b5b60006111bb88828901610e48565b955050602086013567ffffffffffffffff8111156111dc576111db610e22565b5b6111e8888289016110e5565b9450945050604086013567ffffffffffffffff81111561120b5761120a610e22565b5b6112178882890161113b565b92509250509295509295909350565b60006020828403121561123c5761123b610e1d565b5b600061124a84828501610ffc565b91505092915050565b600061125e82610f45565b9050919050565b61126e81611253565b82525050565b60006020820190506112896000830184611265565b92915050565b600082825260208201905092915050565b7f47616d6520616c72656164792065786973747300000000000000000000000000600082015250565b60006112d660138361128f565b91506112e1826112a0565b602082019050919050565b60006020820190508181036000830152611305816112c9565b9050919050565b60006020820190506113216000830184610e8a565b92915050565b600060408201905061133c600083018561106c565b6113496020830184610e8a565b9392505050565b61135981610e99565b811461136457600080fd5b50565b60008151905061137681611350565b92915050565b60006020828403121561139257611391610e1d565b5b60006113a084828501611367565b91505092915050565b7f47616d65206e6f74206163746976650000000000000000000000000000000000600082015250565b60006113df600f8361128f565b91506113ea826113a9565b602082019050919050565b6000602082019050818103600083015261140e816113d2565b9050919050565b7f4c656e677468206d69736d617463680000000000000000000000000000000000600082015250565b600061144b600f8361128f565b915061145682611415565b602082019050919050565b6000602082019050818103600083015261147a8161143e565b9050919050565b7f4e487b7100000000000000000000000000000000000000000000000000000000600052603260045260246000fd5b7f4e487b7100000000000000000000000000000000000000000000000000000000600052601160045260246000fd5b60006114ea82610e27565b91506114f583610e27565b925082820190508082111561150d5761150c6114b0565b5b92915050565b7f5061796f7574206578636565647320706f740000000000000000000000000000600082015250565b600061154960128361128f565b915061155482611513565b602082019050919050565b600060208201905081810360008301526115788161153c565b9050919050565b7f5061796f7574207472616e73666572206661696c656400000000000000000000600082015250565b60006115b560168361128f565b91506115c08261157f565b602082019050919050565b600060208201905081810360008301526115e4816115a8565b9050919050565b6000819050919050565b6000819050919050565b600061161a611615611610846115eb565b610f19565b6115f5565b9050919050565b61162a816115ff565b82525050565b6000608082019050611645600083018761106c565b6116526020830186610ea5565b61165f6040830185610e8a565b61166c6060830184611621565b95945050505050565b600082825260208201905092915050565b6000819050919050565b61169981610fd3565b82525050565b60006116ab8383611690565b60208301905092915050565b60006116c66020840184610ffc565b905092915050565b6000602082019050919050565b60006116e78385611675565b93506116f282611686565b8060005b8581101561172b5761170882846116b7565b611712888261169f565b975061171d836116ce565b9250506001810190506116f6565b5085925050509392505050565b600082825260208201905092915050565b600080fd5b82818337505050565b60006117638385611738565b93507f07ffffffffffffffffffffffffffffffffffffffffffffffffffffffffffffff83111561179657611795611749565b5b6020830292506117a783858461174e565b82840190509392505050565b600060408201905081810360008301526117ce8186886116db565b905081810360208301526117e3818486611757565b905095945050505050565b7f416c7265616479206a6f696e6564000000000000000000000000000000000000600082015250565b6000611824600e8361128f565b915061182f826117ee565b602082019050919050565b6000602082019050818103600083015261185381611817565b9050919050565b600060608201905061186f600083018661106c565b61187c602083018561106c565b6118896040830184610e8a565b949350505050565b7f5472616e73666572206661696c65640000000000000000000000000000000000600082015250565b60006118c7600f8361128f565b91506118d282611891565b602082019050919050565b600060208201905081810360008301526118f6816118ba565b9050919050565b60008151905061190c81610e31565b92915050565b60006020828403121561192857611927610e1d565b5b6000611936848285016118fd565b9150509291505056fea26469706673582212209bbf6acedbfa7d6570a6a8acbd2ee962f4c3102ddd2a7b4affc2e2049fafb25664736f6c63430008180033","opcodes":"PUSH1 0x80 PUSH1 0x40 MSTORE CALLVALUE DUP1 ISZERO PUSH3 0x11 JUMPI PUSH1 0x0 DUP1 REVERT JUMPDEST POP PUSH1 0x40 MLOAD PUSH3 0x1C78 CODESIZE SUB DUP1 PUSH3 0x1C78 DUP4 CODECOPY DUP2 DUP2 ADD PUSH1 0x40 MSTORE DUP2 ADD SWAP1 PUSH3 0x37 SWAP2 SWAP1 PUSH3 0x27E JUMP JUMPDEST CALLER PUSH1 0x0 PUSH20 0xFFFFFFFFFFFFFFFFFFFFFFFFFFFFFFFFFFFFFFFF AND DUP2 PUSH20 0xFFFFFFFFFFFFFFFFFFFFFFFFFFFFFFFFFFFFFFFF AND SUB PUSH3 0xAD JUMPI PUSH1 0x0 PUSH1 0x40 MLOAD PUSH32 0x1E4FBDF700000000000000000000000000000000000000000000000000000000 DUP2 MSTORE PUSH1 0x4 ADD PUSH3 0xA4 SWAP2 SWAP1 PUSH3 0x2D6 JUMP JUMPDEST PUSH1 0x40 MLOAD DUP1 SWAP2 SUB SWAP1 REVERT JUMPDEST PUSH3 0xBE DUP2 PUSH3 0x150 PUSH1 0x20 SHL PUSH1 0x20 SHR JUMP JUMPDEST POP PUSH1 0x1 DUP1 DUP2 SWAP1 SSTORE POP DUP2 PUSH1 0x2 PUSH1 0x0 PUSH2 0x100 EXP DUP2 SLOAD DUP2 PUSH20 0xFFFFFFFFFFFFFFFFFFFFFFFFFFFFFFFFFFFFFFFF MUL NOT AND SWAP1 DUP4 PUSH20 0xFFFFFFFFFFFFFFFFFFFFFFFFFFFFFFFFFFFFFFFF AND MUL OR SWAP1 SSTORE POP DUP1 PUSH1 0x3 PUSH1 0x0 PUSH2 0x100 EXP DUP2 SLOAD DUP2 PUSH20 0xFFFFFFFFFFFFFFFFFFFFFFFFFFFFFFFFFFFFFFFF MUL NOT AND SWAP1 DUP4 PUSH20 0xFFFFFFFFFFFFFFFFFFFFFFFFFFFFFFFFFFFFFFFF AND MUL OR SWAP1 SSTORE POP POP POP PUSH3 0x2F3 JUMP JUMPDEST PUSH1 0x0 DUP1 PUSH1 0x0 SWAP1 SLOAD SWAP1 PUSH2 0x100 EXP SWAP1 DIV PUSH20 0xFFFFFFFFFFFFFFFFFFFFFFFFFFFFFFFFFFFFFFFF AND SWAP1 POP DUP2 PUSH1 0x0 DUP1 PUSH2 0x100 EXP DUP2 SLOAD DUP2 PUSH20 0xFFFFFFFFFFFFFFFFFFFFFFFFFFFFFFFFFFFFFFFF MUL NOT AND SWAP1 DUP4 PUSH20 0xFFFFFFFFFFFFFFFFFFFFFFFFFFFFFFFFFFFFFFFF AND MUL OR SWAP1 SSTORE POP DUP2 PUSH20 0xFFFFFFFFFFFFFFFFFFFFFFFFFFFFFFFFFFFFFFFF AND DUP2 PUSH20 0xFFFFFFFFFFFFFFFFFFFFFFFFFFFFFFFFFFFFFFFF AND PUSH32 0x8BE0079C531659141344CD1FD0A4F28419497F9722A3DAAFE3B4186F6B6457E0 PUSH1 0x40 MLOAD PUSH1 0x40 MLOAD DUP1 SWAP2 SUB SWAP1 LOG3 POP POP JUMP JUMPDEST PUSH1 0x0 DUP1 REVERT JUMPDEST PUSH1 0x0 PUSH20 0xFFFFFFFFFFFFFFFFFFFFFFFFFFFFFFFFFFFFFFFF DUP3 AND SWAP1 POP SWAP2 SWAP1 POP JUMP JUMPDEST PUSH1 0x0 PUSH3 0x246 DUP3 PUSH3 0x219 JUMP JUMPDEST SWAP1 POP SWAP2 SWAP1 POP JUMP JUMPDEST PUSH3 0x258 DUP2 PUSH3 0x239 JUMP JUMPDEST DUP2 EQ PUSH3 0x264 JUMPI PUSH1 0x0 DUP1 REVERT JUMPDEST POP JUMP JUMPDEST PUSH1 0x0 DUP2 MLOAD SWAP1 POP PUSH3 0x278 DUP2 PUSH3 0x24D JUMP JUMPDEST SWAP3 SWAP2 POP POP JUMP JUMPDEST PUSH1 0x0 DUP1 PUSH1 0x40 DUP4 DUP6 SUB SLT ISZERO PUSH3 0x298 JUMPI PUSH3 0x297 PUSH3 0x214 JUMP JUMPDEST JUMPDEST PUSH1 0x0 PUSH3 0x2A8 DUP6 DUP3 DUP7 ADD PUSH3 0x267 JUMP JUMPDEST SWAP3 POP POP PUSH1 0x20 PUSH3 0x2BB DUP6 DUP3 DUP7 ADD PUSH3 0x267 JUMP JUMPDEST SWAP2 POP POP SWAP3 POP SWAP3 SWAP1 POP JUMP JUMPDEST PUSH3 0x2D0 DUP2 PUSH3 0x239 JUMP JUMPDEST DUP3 MSTORE POP POP JUMP JUMPDEST PUSH1 0x0 PUSH1 0x20 DUP3 ADD SWAP1 POP PUSH3 0x2ED PUSH1 0x0 DUP4 ADD DUP5 PUSH3 0x2C5 JUMP JUMPDEST SWAP3 SWAP2 POP POP JUMP JUMPDEST PUSH2 0x1975 DUP1 PUSH3 0x303 PUSH1 0x0 CODECOPY PUSH1 0x0 RETURN INVALID PUSH1 0x80 PUSH1 0x40 MSTORE CALLVALUE DUP1 ISZERO PUSH2 0x10 JUMPI PUSH1 0x0 DUP1 REVERT JUMPDEST POP PUSH1 0x4 CALLDATASIZE LT PUSH2 0xA9 JUMPI PUSH1 0x0 CALLDATALOAD PUSH1 0xE0 SHR DUP1 PUSH4 0x8DA5CB5B GT PUSH2 0x71 JUMPI DUP1 PUSH4 0x8DA5CB5B EQ PUSH2 0x155 JUMPI DUP1 PUSH4 0x95CCEA67 EQ PUSH2 0x173 JUMPI DUP1 PUSH4 0xA06F8C9D EQ PUSH2 0x18F JUMPI DUP1 PUSH4 0xEFAA55A0 EQ PUSH2 0x1AB JUMPI DUP1 PUSH4 0xF2FDE38B EQ PUSH2 0x1C7 JUMPI DUP1 PUSH4 0xFA488649 EQ PUSH2 0x1E3 JUMPI PUSH2 0xA9 JUMP JUMPDEST DUP1 PUSH4 0x117A5B90 EQ PUSH2 0xAE JUMPI DUP1 PUSH4 0x3E413BEE EQ PUSH2 0xE1 JUMPI DUP1 PUSH4 0x60104CEF EQ PUSH2 0xFF JUMPI DUP1 PUSH4 0x68194719 EQ PUSH2 0x11B JUMPI DUP1 PUSH4 0x715018A6 EQ PUSH2 0x14B JUMPI JUMPDEST PUSH1 0x0 DUP1 REVERT JUMPDEST PUSH2 0xC8 PUSH1 0x4 DUP1 CALLDATASIZE SUB DUP2 ADD SWAP1 PUSH2 0xC3 SWAP2 SWAP1 PUSH2 0xE5D JUMP JUMPDEST PUSH2 0x201 JUMP JUMPDEST PUSH1 0x40 MLOAD PUSH2 0xD8 SWAP5 SWAP4 SWAP3 SWAP2 SWAP1 PUSH2 0xEB4 JUMP JUMPDEST PUSH1 0x40 MLOAD DUP1 SWAP2 SUB SWAP1 RETURN JUMPDEST PUSH2 0xE9 PUSH2 0x23E JUMP JUMPDEST PUSH1 0x40 MLOAD PUSH2 0xF6 SWAP2 SWAP1 PUSH2 0xF78 JUMP JUMPDEST PUSH1 0x40 MLOAD DUP1 SWAP2 SUB SWAP1 RETURN JUMPDEST PUSH2 0x119 PUSH1 0x4 DUP1 CALLDATASIZE SUB DUP2 ADD SWAP1 PUSH2 0x114 SWAP2 SWAP1 PUSH2 0xF93 JUMP JUMPDEST PUSH2 0x264 JUMP JUMPDEST STOP JUMPDEST PUSH2 0x135 PUSH1 0x4 DUP1 CALLDATASIZE SUB DUP2 ADD SWAP1 PUSH2 0x130 SWAP2 SWAP1 PUSH2 0x1011 JUMP JUMPDEST PUSH2 0x340 JUMP JUMPDEST PUSH1 0x40 MLOAD PUSH2 0x142 SWAP2 SWAP1 PUSH2 0x1051 JUMP JUMPDEST PUSH1 0x40 MLOAD DUP1 SWAP2 SUB SWAP1 RETURN JUMPDEST PUSH2 0x153 PUSH2 0x36F JUMP JUMPDEST STOP JUMPDEST PUSH2 0x15D PUSH2 0x383 JUMP JUMPDEST PUSH1 0x40 MLOAD PUSH2 0x16A SWAP2 SWAP1 PUSH2 0x107B JUMP JUMPDEST PUSH1 0x40 MLOAD DUP1 SWAP2 SUB SWAP1 RETURN JUMPDEST PUSH2 0x18D PUSH1 0x4 DUP1 CALLDATASIZE SUB DUP2 ADD SWAP1 PUSH2 0x188 SWAP2 SWAP1 PUSH2 0x1096 JUMP JUMPDEST PUSH2 0x3AC JUMP JUMPDEST STOP JUMPDEST PUSH2 0x1A9 PUSH1 0x4 DUP1 CALLDATASIZE SUB DUP2 ADD SWAP1 PUSH2 0x1A4 SWAP2 SWAP1 PUSH2 0x1191 JUMP JUMPDEST PUSH2 0x43E JUMP JUMPDEST STOP JUMPDEST PUSH2 0x1C5 PUSH1 0x4 DUP1 CALLDATASIZE SUB DUP2 ADD SWAP1 PUSH2 0x1C0 SWAP2 SWAP1 PUSH2 0xE5D JUMP JUMPDEST PUSH2 0x7FF JUMP JUMPDEST STOP JUMPDEST PUSH2 0x1E1 PUSH1 0x4 DUP1 CALLDATASIZE SUB DUP2 ADD SWAP1 PUSH2 0x1DC SWAP2 SWAP1 PUSH2 0x1226 JUMP JUMPDEST PUSH2 0xBCF JUMP JUMPDEST STOP JUMPDEST PUSH2 0x1EB PUSH2 0xC55 JUMP JUMPDEST PUSH1 0x40 MLOAD PUSH2 0x1F8 SWAP2 SWAP1 PUSH2 0x1274 JUMP JUMPDEST PUSH1 0x40 MLOAD DUP1 SWAP2 SUB SWAP1 RETURN JUMPDEST PUSH1 0x4 PUSH1 0x20 MSTORE DUP1 PUSH1 0x0 MSTORE PUSH1 0x40 PUSH1 0x0 KECCAK256 PUSH1 0x0 SWAP2 POP SWAP1 POP DUP1 PUSH1 0x0 ADD SLOAD SWAP1 DUP1 PUSH1 0x1 ADD SLOAD SWAP1 DUP1 PUSH1 0x2 ADD SLOAD SWAP1 DUP1 PUSH1 0x3 ADD PUSH1 0x0 SWAP1 SLOAD SWAP1 PUSH2 0x100 EXP SWAP1 DIV PUSH1 0xFF AND SWAP1 POP DUP5 JUMP JUMPDEST PUSH1 0x2 PUSH1 0x0 SWAP1 SLOAD SWAP1 PUSH2 0x100 EXP SWAP1 DIV PUSH20 0xFFFFFFFFFFFFFFFFFFFFFFFFFFFFFFFFFFFFFFFF AND DUP2 JUMP JUMPDEST PUSH1 0x0 PUSH1 0x4 PUSH1 0x0 DUP5 DUP2 MSTORE PUSH1 0x20 ADD SWAP1 DUP2 MSTORE PUSH1 0x20 ADD PUSH1 0x0 KECCAK256 PUSH1 0x0 ADD SLOAD EQ PUSH2 0x2BD JUMPI PUSH1 0x40 MLOAD PUSH32 0x8C379A000000000000000000000000000000000000000000000000000000000 DUP2 MSTORE PUSH1 0x4 ADD PUSH2 0x2B4 SWAP1 PUSH2 0x12EC JUMP JUMPDEST PUSH1 0x40 MLOAD DUP1 SWAP2 SUB SWAP1 REVERT JUMPDEST PUSH1 0x0 PUSH1 0x4 PUSH1 0x0 DUP5 DUP2 MSTORE PUSH1 0x20 ADD SWAP1 DUP2 MSTORE PUSH1 0x20 ADD PUSH1 0x0 KECCAK256 SWAP1 POP DUP3 DUP2 PUSH1 0x0 ADD DUP2 SWAP1 SSTORE POP DUP2 DUP2 PUSH1 0x1 ADD DUP2 SWAP1 SSTORE POP PUSH1 0x1 DUP2 PUSH1 0x3 ADD PUSH1 0x0 PUSH2 0x100 EXP DUP2 SLOAD DUP2 PUSH1 0xFF MUL NOT AND SWAP1 DUP4 ISZERO ISZERO MUL OR SWAP1 SSTORE POP DUP3 PUSH32 0xA26856D25E558C79E1632806BC6824075CF59885A115825F2AAB62385A3F7142 DUP4 PUSH1 0x40 MLOAD PUSH2 0x333 SWAP2 SWAP1 PUSH2 0x130C JUMP JUMPDEST PUSH1 0x40 MLOAD DUP1 SWAP2 SUB SWAP1 LOG2 POP POP POP JUMP JUMPDEST PUSH1 0x5 PUSH1 0x20 MSTORE DUP2 PUSH1 0x0 MSTORE PUSH1 0x40 PUSH1 0x0 KECCAK256 PUSH1 0x20 MSTORE DUP1 PUSH1 0x0 MSTORE PUSH1 0x40 PUSH1 0x0 KECCAK256 PUSH1 0x0 SWAP2 POP SWAP2 POP SWAP1 SLOAD SWAP1 PUSH2 0x100 EXP SWAP1 DIV PUSH1 0xFF AND DUP2 JUMP JUMPDEST PUSH2 0x377 PUSH2 0xC7B JUMP JUMPDEST PUSH2 0x381 PUSH1 0x0 PUSH2 0xD02 JUMP JUMPDEST JUMP JUMPDEST PUSH1 0x0 DUP1 PUSH1 0x0 SWAP1 SLOAD SWAP1 PUSH2 0x100 EXP SWAP1 DIV PUSH20 0xFFFFFFFFFFFFFFFFFFFFFFFFFFFFFFFFFFFFFFFF AND SWAP1 POP SWAP1 JUMP JUMPDEST PUSH2 0x3B4 PUSH2 0xC7B JUMP JUMPDEST DUP2 PUSH20 0xFFFFFFFFFFFFFFFFFFFFFFFFFFFFFFFFFFFFFFFF AND PUSH4 0xA9059CBB PUSH2 0x3D8 PUSH2 0x383 JUMP JUMPDEST DUP4 PUSH1 0x40 MLOAD DUP4 PUSH4 0xFFFFFFFF AND PUSH1 0xE0 SHL DUP2 MSTORE PUSH1 0x4 ADD PUSH2 0x3F6 SWAP3 SWAP2 SWAP1 PUSH2 0x1327 JUMP JUMPDEST PUSH1 0x20 PUSH1 0x40 MLOAD DUP1 DUP4 SUB DUP2 PUSH1 0x0 DUP8 GAS CALL ISZERO DUP1 ISZERO PUSH2 0x415 JUMPI RETURNDATASIZE PUSH1 0x0 DUP1 RETURNDATACOPY RETURNDATASIZE PUSH1 0x0 REVERT JUMPDEST POP POP POP POP PUSH1 0x40 MLOAD RETURNDATASIZE PUSH1 0x1F NOT PUSH1 0x1F DUP3 ADD AND DUP3 ADD DUP1 PUSH1 0x40 MSTORE POP DUP2 ADD SWAP1 PUSH2 0x439 SWAP2 SWAP1 PUSH2 0x137C JUMP JUMPDEST POP POP POP JUMP JUMPDEST PUSH2 0x446 PUSH2 0xC7B JUMP JUMPDEST PUSH2 0x44E PUSH2 0xDC6 JUMP JUMPDEST PUSH1 0x0 PUSH1 0x4 PUSH1 0x0 DUP8 DUP2 MSTORE PUSH1 0x20 ADD SWAP1 DUP2 MSTORE PUSH1 0x20 ADD PUSH1 0x0 KECCAK256 SWAP1 POP DUP1 PUSH1 0x3 ADD PUSH1 0x0 SWAP1 SLOAD SWAP1 PUSH2 0x100 EXP SWAP1 DIV PUSH1 0xFF AND PUSH2 0x4B6 JUMPI PUSH1 0x40 MLOAD PUSH32 0x8C379A000000000000000000000000000000000000000000000000000000000 DUP2 MSTORE PUSH1 0x4 ADD PUSH2 0x4AD SWAP1 PUSH2 0x13F5 JUMP JUMPDEST PUSH1 0x40 MLOAD DUP1 SWAP2 SUB SWAP1 REVERT JUMPDEST DUP3 DUP3 SWAP1 POP DUP6 DUP6 SWAP1 POP EQ PUSH2 0x4FE JUMPI PUSH1 0x40 MLOAD PUSH32 0x8C379A000000000000000000000000000000000000000000000000000000000 DUP2 MSTORE PUSH1 0x4 ADD PUSH2 0x4F5 SWAP1 PUSH2 0x1461 JUMP JUMPDEST PUSH1 0x40 MLOAD DUP1 SWAP2 SUB SWAP1 REVERT JUMPDEST PUSH1 0x0 DUP1 JUMPDEST DUP5 DUP5 SWAP1 POP DUP2 LT ISZERO PUSH2 0x541 JUMPI DUP5 DUP5 DUP3 DUP2 DUP2 LT PUSH2 0x520 JUMPI PUSH2 0x51F PUSH2 0x1481 JUMP JUMPDEST JUMPDEST SWAP1 POP PUSH1 0x20 MUL ADD CALLDATALOAD DUP3 PUSH2 0x532 SWAP2 SWAP1 PUSH2 0x14DF JUMP JUMPDEST SWAP2 POP DUP1 DUP1 PUSH1 0x1 ADD SWAP2 POP POP PUSH2 0x502 JUMP JUMPDEST POP DUP2 PUSH1 0x2 ADD SLOAD DUP2 GT ISZERO PUSH2 0x589 JUMPI PUSH1 0x40 MLOAD PUSH32 0x8C379A000000000000000000000000000000000000000000000000000000000 DUP2 MSTORE PUSH1 0x4 ADD PUSH2 0x580 SWAP1 PUSH2 0x155F JUMP JUMPDEST PUSH1 0x40 MLOAD DUP1 SWAP2 SUB SWAP1 REVERT JUMPDEST PUSH1 0x0 DUP3 PUSH1 0x3 ADD PUSH1 0x0 PUSH2 0x100 EXP DUP2 SLOAD DUP2 PUSH1 0xFF MUL NOT AND SWAP1 DUP4 ISZERO ISZERO MUL OR SWAP1 SSTORE POP PUSH1 0x0 JUMPDEST DUP7 DUP7 SWAP1 POP DUP2 LT ISZERO PUSH2 0x7AF JUMPI PUSH1 0x2 PUSH1 0x0 SWAP1 SLOAD SWAP1 PUSH2 0x100 EXP SWAP1 DIV PUSH20 0xFFFFFFFFFFFFFFFFFFFFFFFFFFFFFFFFFFFFFFFF AND PUSH20 0xFFFFFFFFFFFFFFFFFFFFFFFFFFFFFFFFFFFFFFFF AND PUSH4 0xA9059CBB DUP9 DUP9 DUP5 DUP2 DUP2 LT PUSH2 0x605 JUMPI PUSH2 0x604 PUSH2 0x1481 JUMP JUMPDEST JUMPDEST SWAP1 POP PUSH1 0x20 MUL ADD PUSH1 0x20 DUP2 ADD SWAP1 PUSH2 0x61A SWAP2 SWAP1 PUSH2 0x1226 JUMP JUMPDEST DUP8 DUP8 DUP6 DUP2 DUP2 LT PUSH2 0x62D JUMPI PUSH2 0x62C PUSH2 0x1481 JUMP JUMPDEST JUMPDEST SWAP1 POP PUSH1 0x20 MUL ADD CALLDATALOAD PUSH1 0x40 MLOAD DUP4 PUSH4 0xFFFFFFFF AND PUSH1 0xE0 SHL DUP2 MSTORE PUSH1 0x4 ADD PUSH2 0x651 SWAP3 SWAP2 SWAP1 PUSH2 0x1327 JUMP JUMPDEST PUSH1 0x20 PUSH1 0x40 MLOAD DUP1 DUP4 SUB DUP2 PUSH1 0x0 DUP8 GAS CALL ISZERO DUP1 ISZERO PUSH2 0x670 JUMPI RETURNDATASIZE PUSH1 0x0 DUP1 RETURNDATACOPY RETURNDATASIZE PUSH1 0x0 REVERT JUMPDEST POP POP POP POP PUSH1 0x40 MLOAD RETURNDATASIZE PUSH1 0x1F NOT PUSH1 0x1F DUP3 ADD AND DUP3 ADD DUP1 PUSH1 0x40 MSTORE POP DUP2 ADD SWAP1 PUSH2 0x694 SWAP2 SWAP1 PUSH2 0x137C JUMP JUMPDEST PUSH2 0x6D3 JUMPI PUSH1 0x40 MLOAD PUSH32 0x8C379A000000000000000000000000000000000000000000000000000000000 DUP2 MSTORE PUSH1 0x4 ADD PUSH2 0x6CA SWAP1 PUSH2 0x15CB JUMP JUMPDEST PUSH1 0x40 MLOAD DUP1 SWAP2 SUB SWAP1 REVERT JUMPDEST PUSH1 0x3 PUSH1 0x0 SWAP1 SLOAD SWAP1 PUSH2 0x100 EXP SWAP1 DIV PUSH20 0xFFFFFFFFFFFFFFFFFFFFFFFFFFFFFFFFFFFFFFFF AND PUSH20 0xFFFFFFFFFFFFFFFFFFFFFFFFFFFFFFFFFFFFFFFF AND PUSH4 0x92B7035D DUP9 DUP9 DUP5 DUP2 DUP2 LT PUSH2 0x724 JUMPI PUSH2 0x723 PUSH2 0x1481 JUMP JUMPDEST JUMPDEST SWAP1 POP PUSH1 0x20 MUL ADD PUSH1 0x20 DUP2 ADD SWAP1 PUSH2 0x739 SWAP2 SWAP1 PUSH2 0x1226 JUMP JUMPDEST PUSH1 0x1 DUP9 DUP9 DUP7 DUP2 DUP2 LT PUSH2 0x74E JUMPI PUSH2 0x74D PUSH2 0x1481 JUMP JUMPDEST JUMPDEST SWAP1 POP PUSH1 0x20 MUL ADD CALLDATALOAD PUSH1 0xA PUSH1 0x40 MLOAD DUP6 PUSH4 0xFFFFFFFF AND PUSH1 0xE0 SHL DUP2 MSTORE PUSH1 0x4 ADD PUSH2 0x776 SWAP5 SWAP4 SWAP3 SWAP2 SWAP1 PUSH2 0x1630 JUMP JUMPDEST PUSH1 0x0 PUSH1 0x40 MLOAD DUP1 DUP4 SUB DUP2 PUSH1 0x0 DUP8 DUP1 EXTCODESIZE ISZERO DUP1 ISZERO PUSH2 0x790 JUMPI PUSH1 0x0 DUP1 REVERT JUMPDEST POP GAS CALL SWAP3 POP POP POP DUP1 ISZERO PUSH2 0x7A1 JUMPI POP PUSH1 0x1 JUMPDEST POP DUP1 DUP1 PUSH1 0x1 ADD SWAP2 POP POP PUSH2 0x5A9 JUMP JUMPDEST POP DUP7 PUSH32 0x6AFFE9F3149ED790696BFB6D1D89F37674691839FF296C6EF6289BC51C1060B DUP8 DUP8 DUP8 DUP8 PUSH1 0x40 MLOAD PUSH2 0x7E6 SWAP5 SWAP4 SWAP3 SWAP2 SWAP1 PUSH2 0x17B3 JUMP JUMPDEST PUSH1 0x40 MLOAD DUP1 SWAP2 SUB SWAP1 LOG2 POP POP PUSH2 0x7F8 PUSH2 0xE0C JUMP JUMPDEST POP POP POP POP POP JUMP JUMPDEST PUSH2 0x807 PUSH2 0xDC6 JUMP JUMPDEST PUSH1 0x0 PUSH1 0x4 PUSH1 0x0 DUP4 DUP2 MSTORE PUSH1 0x20 ADD SWAP1 DUP2 MSTORE PUSH1 0x20 ADD PUSH1 0x0 KECCAK256 SWAP1 POP DUP1 PUSH1 0x3 ADD PUSH1 0x0 SWAP1 SLOAD SWAP1 PUSH2 0x100 EXP SWAP1 DIV PUSH1 0xFF AND PUSH2 0x86F JUMPI PUSH1 0x40 MLOAD PUSH32 0x8C379A000000000000000000000000000000000000000000000000000000000 DUP2 MSTORE PUSH1 0x4 ADD PUSH2 0x866 SWAP1 PUSH2 0x13F5 JUMP JUMPDEST PUSH1 0x40 MLOAD DUP1 SWAP2 SUB SWAP1 REVERT JUMPDEST PUSH1 0x5 PUSH1 0x0 DUP4 DUP2 MSTORE PUSH1 0x20 ADD SWAP1 DUP2 MSTORE PUSH1 0x20 ADD PUSH1 0x0 KECCAK256 PUSH1 0x0 CALLER PUSH20 0xFFFFFFFFFFFFFFFFFFFFFFFFFFFFFFFFFFFFFFFF AND PUSH20 0xFFFFFFFFFFFFFFFFFFFFFFFFFFFFFFFFFFFFFFFF AND DUP2 MSTORE PUSH1 0x20 ADD SWAP1 DUP2 MSTORE PUSH1 0x20 ADD PUSH1 0x0 KECCAK256 PUSH1 0x0 SWAP1 SLOAD SWAP1 PUSH2 0x100 EXP SWAP1 DIV PUSH1 0xFF AND ISZERO PUSH2 0x90D JUMPI PUSH1 0x40 MLOAD PUSH32 0x8C379A000000000000000000000000000000000000000000000000000000000 DUP2 MSTORE PUSH1 0x4 ADD PUSH2 0x904 SWAP1 PUSH2 0x183A JUMP JUMPDEST PUSH1 0x40 MLOAD DUP1 SWAP2 SUB SWAP1 REVERT JUMPDEST PUSH1 0x2 PUSH1 0x0 SWAP1 SLOAD SWAP1 PUSH2 0x100 EXP SWAP1 DIV PUSH20 0xFFFFFFFFFFFFFFFFFFFFFFFFFFFFFFFFFFFFFFFF AND PUSH20 0xFFFFFFFFFFFFFFFFFFFFFFFFFFFFFFFFFFFFFFFF AND PUSH4 0x23B872DD CALLER ADDRESS DUP5 PUSH1 0x1 ADD SLOAD PUSH1 0x40 MLOAD DUP5 PUSH4 0xFFFFFFFF AND PUSH1 0xE0 SHL DUP2 MSTORE PUSH1 0x4 ADD PUSH2 0x970 SWAP4 SWAP3 SWAP2 SWAP1 PUSH2 0x185A JUMP JUMPDEST PUSH1 0x20 PUSH1 0x40 MLOAD DUP1 DUP4 SUB DUP2 PUSH1 0x0 DUP8 GAS CALL ISZERO DUP1 ISZERO PUSH2 0x98F JUMPI RETURNDATASIZE PUSH1 0x0 DUP1 RETURNDATACOPY RETURNDATASIZE PUSH1 0x0 REVERT JUMPDEST POP POP POP POP PUSH1 0x40 MLOAD RETURNDATASIZE PUSH1 0x1F NOT PUSH1 0x1F DUP3 ADD AND DUP3 ADD DUP1 PUSH1 0x40 MSTORE POP DUP2 ADD SWAP1 PUSH2 0x9B3 SWAP2 SWAP1 PUSH2 0x137C JUMP JUMPDEST PUSH2 0x9F2 JUMPI PUSH1 0x40 MLOAD PUSH32 0x8C379A000000000000000000000000000000000000000000000000000000000 DUP2 MSTORE PUSH1 0x4 ADD PUSH2 0x9E9 SWAP1 PUSH2 0x18DD JUMP JUMPDEST PUSH1 0x40 MLOAD DUP1 SWAP2 SUB SWAP1 REVERT JUMPDEST DUP1 PUSH1 0x4 ADD CALLER SWAP1 DUP1 PUSH1 0x1 DUP2 SLOAD ADD DUP1 DUP3 SSTORE DUP1 SWAP2 POP POP PUSH1 0x1 SWAP1 SUB SWAP1 PUSH1 0x0 MSTORE PUSH1 0x20 PUSH1 0x0 KECCAK256 ADD PUSH1 0x0 SWAP1 SWAP2 SWAP1 SWAP2 SWAP1 SWAP2 PUSH2 0x100 EXP DUP2 SLOAD DUP2 PUSH20 0xFFFFFFFFFFFFFFFFFFFFFFFFFFFFFFFFFFFFFFFF MUL NOT AND SWAP1 DUP4 PUSH20 0xFFFFFFFFFFFFFFFFFFFFFFFFFFFFFFFFFFFFFFFF AND MUL OR SWAP1 SSTORE POP DUP1 PUSH1 0x1 ADD SLOAD DUP2 PUSH1 0x2 ADD PUSH1 0x0 DUP3 DUP3 SLOAD PUSH2 0xA6F SWAP2 SWAP1 PUSH2 0x14DF JUMP JUMPDEST SWAP3 POP POP DUP2 SWAP1 SSTORE POP PUSH1 0x1 PUSH1 0x5 PUSH1 0x0 DUP5 DUP2 MSTORE PUSH1 0x20 ADD SWAP1 DUP2 MSTORE PUSH1 0x20 ADD PUSH1 0x0 KECCAK256 PUSH1 0x0 CALLER PUSH20 0xFFFFFFFFFFFFFFFFFFFFFFFFFFFFFFFFFFFFFFFF AND PUSH20 0xFFFFFFFFFFFFFFFFFFFFFFFFFFFFFFFFFFFFFFFF AND DUP2 MSTORE PUSH1 0x20 ADD SWAP1 DUP2 MSTORE PUSH1 0x20 ADD PUSH1 0x0 KECCAK256 PUSH1 0x0 PUSH2 0x100 EXP DUP2 SLOAD DUP2 PUSH1 0xFF MUL NOT AND SWAP1 DUP4 ISZERO ISZERO MUL OR SWAP1 SSTORE POP PUSH1 0x0 PUSH1 0x3 PUSH1 0x0 SWAP1 SLOAD SWAP1 PUSH2 0x100 EXP SWAP1 DIV PUSH20 0xFFFFFFFFFFFFFFFFFFFFFFFFFFFFFFFFFFFFFFFF AND PUSH20 0xFFFFFFFFFFFFFFFFFFFFFFFFFFFFFFFFFFFFFFFF AND PUSH4 0x6511BF2E CALLER PUSH1 0x40 MLOAD DUP3 PUSH4 0xFFFFFFFF AND PUSH1 0xE0 SHL DUP2 MSTORE PUSH1 0x4 ADD PUSH2 0xB3C SWAP2 SWAP1 PUSH2 0x107B JUMP JUMPDEST PUSH1 0x20 PUSH1 0x40 MLOAD DUP1 DUP4 SUB DUP2 DUP7 GAS STATICCALL ISZERO DUP1 ISZERO PUSH2 0xB59 JUMPI RETURNDATASIZE PUSH1 0x0 DUP1 RETURNDATACOPY RETURNDATASIZE PUSH1 0x0 REVERT JUMPDEST POP POP POP POP PUSH1 0x40 MLOAD RETURNDATASIZE PUSH1 0x1F NOT PUSH1 0x1F DUP3 ADD AND DUP3 ADD DUP1 PUSH1 0x40 MSTORE POP DUP2 ADD SWAP1 PUSH2 0xB7D SWAP2 SWAP1 PUSH2 0x1912 JUMP JUMPDEST POP POP CALLER PUSH20 0xFFFFFFFFFFFFFFFFFFFFFFFFFFFFFFFFFFFFFFFF AND DUP3 PUSH32 0x87969BC7FAF902221A147B95CEBA76E011C5EFB0339A0A8EE7A2BB82D9CFBBD6 PUSH1 0x40 MLOAD PUSH1 0x40 MLOAD DUP1 SWAP2 SUB SWAP1 LOG3 POP PUSH2 0xBCC PUSH2 0xE0C JUMP JUMPDEST POP JUMP JUMPDEST PUSH2 0xBD7 PUSH2 0xC7B JUMP JUMPDEST PUSH1 0x0 PUSH20 0xFFFFFFFFFFFFFFFFFFFFFFFFFFFFFFFFFFFFFFFF AND DUP2 PUSH20 0xFFFFFFFFFFFFFFFFFFFFFFFFFFFFFFFFFFFFFFFF AND SUB PUSH2 0xC49 JUMPI PUSH1 0x0 PUSH1 0x40 MLOAD PUSH32 0x1E4FBDF700000000000000000000000000000000000000000000000000000000 DUP2 MSTORE PUSH1 0x4 ADD PUSH2 0xC40 SWAP2 SWAP1 PUSH2 0x107B JUMP JUMPDEST PUSH1 0x40 MLOAD DUP1 SWAP2 SUB SWAP1 REVERT JUMPDEST PUSH2 0xC52 DUP2 PUSH2 0xD02 JUMP JUMPDEST POP JUMP JUMPDEST PUSH1 0x3 PUSH1 0x0 SWAP1 SLOAD SWAP1 PUSH2 0x100 EXP SWAP1 DIV PUSH20 0xFFFFFFFFFFFFFFFFFFFFFFFFFFFFFFFFFFFFFFFF AND DUP2 JUMP JUMPDEST PUSH2 0xC83 PUSH2 0xE15 JUMP JUMPDEST PUSH20 0xFFFFFFFFFFFFFFFFFFFFFFFFFFFFFFFFFFFFFFFF AND PUSH2 0xCA1 PUSH2 0x383 JUMP JUMPDEST PUSH20 0xFFFFFFFFFFFFFFFFFFFFFFFFFFFFFFFFFFFFFFFF AND EQ PUSH2 0xD00 JUMPI PUSH2 0xCC4 PUSH2 0xE15 JUMP JUMPDEST PUSH1 0x40 MLOAD PUSH32 0x118CDAA700000000000000000000000000000000000000000000000000000000 DUP2 MSTORE PUSH1 0x4 ADD PUSH2 0xCF7 SWAP2 SWAP1 PUSH2 0x107B JUMP JUMPDEST PUSH1 0x40 MLOAD DUP1 SWAP2 SUB SWAP1 REVERT JUMPDEST JUMP JUMPDEST PUSH1 0x0 DUP1 PUSH1 0x0 SWAP1 SLOAD SWAP1 PUSH2 0x100 EXP SWAP1 DIV PUSH20 0xFFFFFFFFFFFFFFFFFFFFFFFFFFFFFFFFFFFFFFFF AND SWAP1 POP DUP2 PUSH1 0x0 DUP1 PUSH2 0x100 EXP DUP2 SLOAD DUP2 PUSH20 0xFFFFFFFFFFFFFFFFFFFFFFFFFFFFFFFFFFFFFFFF MUL NOT AND SWAP1 DUP4 PUSH20 0xFFFFFFFFFFFFFFFFFFFFFFFFFFFFFFFFFFFFFFFF AND MUL OR SWAP1 SSTORE POP DUP2 PUSH20 0xFFFFFFFFFFFFFFFFFFFFFFFFFFFFFFFFFFFFFFFF AND DUP2 PUSH20 0xFFFFFFFFFFFFFFFFFFFFFFFFFFFFFFFFFFFFFFFF AND PUSH32 0x8BE0079C531659141344CD1FD0A4F28419497F9722A3DAAFE3B4186F6B6457E0 PUSH1 0x40 MLOAD PUSH1 0x40 MLOAD DUP1 SWAP2 SUB SWAP1 LOG3 POP POP JUMP JUMPDEST PUSH1 0x2 PUSH1 0x1 SLOAD SUB PUSH2 0xE02 JUMPI PUSH1 0x40 MLOAD PUSH32 0x3EE5AEB500000000000000000000000000000000000000000000000000000000 DUP2 MSTORE PUSH1 0x4 ADD PUSH1 0x40 MLOAD DUP1 SWAP2 SUB SWAP1 REVERT JUMPDEST PUSH1 0x2 PUSH1 0x1 DUP2 SWAP1 SSTORE POP JUMP JUMPDEST PUSH1 0x1 DUP1 DUP2 SWAP1 SSTORE POP JUMP JUMPDEST PUSH1 0x0 CALLER SWAP1 POP SWAP1 JUMP JUMPDEST PUSH1 0x0 DUP1 REVERT JUMPDEST PUSH1 0x0 DUP1 REVERT JUMPDEST PUSH1 0x0 DUP2 SWAP1 POP SWAP2 SWAP1 POP JUMP JUMPDEST PUSH2 0xE3A DUP2 PUSH2 0xE27 JUMP JUMPDEST DUP2 EQ PUSH2 0xE45 JUMPI PUSH1 0x0 DUP1 REVERT JUMPDEST POP JUMP JUMPDEST PUSH1 0x0 DUP2 CALLDATALOAD SWAP1 POP PUSH2 0xE57 DUP2 PUSH2 0xE31 JUMP JUMPDEST SWAP3 SWAP2 POP POP JUMP JUMPDEST PUSH1 0x0 PUSH1 0x20 DUP3 DUP5 SUB SLT ISZERO PUSH2 0xE73 JUMPI PUSH2 0xE72 PUSH2 0xE1D JUMP JUMPDEST JUMPDEST PUSH1 0x0 PUSH2 0xE81 DUP5 DUP3 DUP6 ADD PUSH2 0xE48 JUMP JUMPDEST SWAP2 POP POP SWAP3 SWAP2 POP POP JUMP JUMPDEST PUSH2 0xE93 DUP2 PUSH2 0xE27 JUMP JUMPDEST DUP3 MSTORE POP POP JUMP JUMPDEST PUSH1 0x0 DUP2 ISZERO ISZERO SWAP1 POP SWAP2 SWAP1 POP JUMP JUMPDEST PUSH2 0xEAE DUP2 PUSH2 0xE99 JUMP JUMPDEST DUP3 MSTORE POP POP JUMP JUMPDEST PUSH1 0x0 PUSH1 0x80 DUP3 ADD SWAP1 POP PUSH2 0xEC9 PUSH1 0x0 DUP4 ADD DUP8 PUSH2 0xE8A JUMP JUMPDEST PUSH2 0xED6 PUSH1 0x20 DUP4 ADD DUP7 PUSH2 0xE8A JUMP JUMPDEST PUSH2 0xEE3 PUSH1 0x40 DUP4 ADD DUP6 PUSH2 0xE8A JUMP JUMPDEST PUSH2 0xEF0 PUSH1 0x60 DUP4 ADD DUP5 PUSH2 0xEA5 JUMP JUMPDEST SWAP6 SWAP5 POP POP POP POP POP JUMP JUMPDEST PUSH1 0x0 PUSH20 0xFFFFFFFFFFFFFFFFFFFFFFFFFFFFFFFFFFFFFFFF DUP3 AND SWAP1 POP SWAP2 SWAP1 POP JUMP JUMPDEST PUSH1 0x0 DUP2 SWAP1 POP SWAP2 SWAP1 POP JUMP JUMPDEST PUSH1 0x0 PUSH2 0xF3E PUSH2 0xF39 PUSH2 0xF34 DUP5 PUSH2 0xEF9 JUMP JUMPDEST PUSH2 0xF19 JUMP JUMPDEST PUSH2 0xEF9 JUMP JUMPDEST SWAP1 POP SWAP2 SWAP1 POP JUMP JUMPDEST PUSH1 0x0 PUSH2 0xF50 DUP3 PUSH2 0xF23 JUMP JUMPDEST SWAP1 POP SWAP2 SWAP1 POP JUMP JUMPDEST PUSH1 0x0 PUSH2 0xF62 DUP3 PUSH2 0xF45 JUMP JUMPDEST SWAP1 POP SWAP2 SWAP1 POP JUMP JUMPDEST PUSH2 0xF72 DUP2 PUSH2 0xF57 JUMP JUMPDEST DUP3 MSTORE POP POP JUMP JUMPDEST PUSH1 0x0 PUSH1 0x20 DUP3 ADD SWAP1 POP PUSH2 0xF8D PUSH1 0x0 DUP4 ADD DUP5 PUSH2 0xF69 JUMP JUMPDEST SWAP3 SWAP2 POP POP JUMP JUMPDEST PUSH1 0x0 DUP1 PUSH1 0x40 DUP4 DUP6 SUB SLT ISZERO PUSH2 0xFAA JUMPI PUSH2 0xFA9 PUSH2 0xE1D JUMP JUMPDEST JUMPDEST PUSH1 0x0 PUSH2 0xFB8 DUP6 DUP3 DUP7 ADD PUSH2 0xE48 JUMP JUMPDEST SWAP3 POP POP PUSH1 0x20 PUSH2 0xFC9 DUP6 DUP3 DUP7 ADD PUSH2 0xE48 JUMP JUMPDEST SWAP2 POP POP SWAP3 POP SWAP3 SWAP1 POP JUMP JUMPDEST PUSH1 0x0 PUSH2 0xFDE DUP3 PUSH2 0xEF9 JUMP JUMPDEST SWAP1 POP SWAP2 SWAP1 POP JUMP JUMPDEST PUSH2 0xFEE DUP2 PUSH2 0xFD3 JUMP JUMPDEST DUP2 EQ PUSH2 0xFF9 JUMPI PUSH1 0x0 DUP1 REVERT JUMPDEST POP JUMP JUMPDEST PUSH1 0x0 DUP2 CALLDATALOAD SWAP1 POP PUSH2 0x100B DUP2 PUSH2 0xFE5 JUMP JUMPDEST SWAP3 SWAP2 POP POP JUMP JUMPDEST PUSH1 0x0 DUP1 PUSH1 0x40 DUP4 DUP6 SUB SLT ISZERO PUSH2 0x1028 JUMPI PUSH2 0x1027 PUSH2 0xE1D JUMP JUMPDEST JUMPDEST PUSH1 0x0 PUSH2 0x1036 DUP6 DUP3 DUP7 ADD PUSH2 0xE48 JUMP JUMPDEST SWAP3 POP POP PUSH1 0x20 PUSH2 0x1047 DUP6 DUP3 DUP7 ADD PUSH2 0xFFC JUMP JUMPDEST SWAP2 POP POP SWAP3 POP SWAP3 SWAP1 POP JUMP JUMPDEST PUSH1 0x0 PUSH1 0x20 DUP3 ADD SWAP1 POP PUSH2 0x1066 PUSH1 0x0 DUP4 ADD DUP5 PUSH2 0xEA5 JUMP JUMPDEST SWAP3 SWAP2 POP POP JUMP JUMPDEST PUSH2 0x1075 DUP2 PUSH2 0xFD3 JUMP JUMPDEST DUP3 MSTORE POP POP JUMP JUMPDEST PUSH1 0x0 PUSH1 0x20 DUP3 ADD SWAP1 POP PUSH2 0x1090 PUSH1 0x0 DUP4 ADD DUP5 PUSH2 0x106C JUMP JUMPDEST SWAP3 SWAP2 POP POP JUMP JUMPDEST PUSH1 0x0 DUP1 PUSH1 0x40 DUP4 DUP6 SUB SLT ISZERO PUSH2 0x10AD JUMPI PUSH2 0x10AC PUSH2 0xE1D JUMP JUMPDEST JUMPDEST PUSH1 0x0 PUSH2 0x10BB DUP6 DUP3 DUP7 ADD PUSH2 0xFFC JUMP JUMPDEST SWAP3 POP POP PUSH1 0x20 PUSH2 0x10CC DUP6 DUP3 DUP7 ADD PUSH2 0xE48 JUMP JUMPDEST SWAP2 POP POP SWAP3 POP SWAP3 SWAP1 POP JUMP JUMPDEST PUSH1 0x0 DUP1 REVERT JUMPDEST PUSH1 0x0 DUP1 REVERT JUMPDEST PUSH1 0x0 DUP1 REVERT JUMPDEST PUSH1 0x0 DUP1 DUP4 PUSH1 0x1F DUP5 ADD SLT PUSH2 0x10FB JUMPI PUSH2 0x10FA PUSH2 0x10D6 JUMP JUMPDEST JUMPDEST DUP3 CALLDATALOAD SWAP1 POP PUSH8 0xFFFFFFFFFFFFFFFF DUP2 GT ISZERO PUSH2 0x1118 JUMPI PUSH2 0x1117 PUSH2 0x10DB JUMP JUMPDEST JUMPDEST PUSH1 0x20 DUP4 ADD SWAP2 POP DUP4 PUSH1 0x20 DUP3 MUL DUP4 ADD GT ISZERO PUSH2 0x1134 JUMPI PUSH2 0x1133 PUSH2 0x10E0 JUMP JUMPDEST JUMPDEST SWAP3 POP SWAP3 SWAP1 POP JUMP JUMPDEST PUSH1 0x0 DUP1 DUP4 PUSH1 0x1F DUP5 ADD SLT PUSH2 0x1151 JUMPI PUSH2 0x1150 PUSH2 0x10D6 JUMP JUMPDEST JUMPDEST DUP3 CALLDATALOAD SWAP1 POP PUSH8 0xFFFFFFFFFFFFFFFF DUP2 GT ISZERO PUSH2 0x116E JUMPI PUSH2 0x116D PUSH2 0x10DB JUMP JUMPDEST JUMPDEST PUSH1 0x20 DUP4 ADD SWAP2 POP DUP4 PUSH1 0x20 DUP3 MUL DUP4 ADD GT ISZERO PUSH2 0x118A JUMPI PUSH2 0x1189 PUSH2 0x10E0 JUMP JUMPDEST JUMPDEST SWAP3 POP SWAP3 SWAP1 POP JUMP JUMPDEST PUSH1 0x0 DUP1 PUSH1 0x0 DUP1 PUSH1 0x0 PUSH1 0x60 DUP7 DUP9 SUB SLT ISZERO PUSH2 0x11AD JUMPI PUSH2 0x11AC PUSH2 0xE1D JUMP JUMPDEST JUMPDEST PUSH1 0x0 PUSH2 0x11BB DUP9 DUP3 DUP10 ADD PUSH2 0xE48 JUMP JUMPDEST SWAP6 POP POP PUSH1 0x20 DUP7 ADD CALLDATALOAD PUSH8 0xFFFFFFFFFFFFFFFF DUP2 GT ISZERO PUSH2 0x11DC JUMPI PUSH2 0x11DB PUSH2 0xE22 JUMP JUMPDEST JUMPDEST PUSH2 0x11E8 DUP9 DUP3 DUP10 ADD PUSH2 0x10E5 JUMP JUMPDEST SWAP5 POP SWAP5 POP POP PUSH1 0x40 DUP7 ADD CALLDATALOAD PUSH8 0xFFFFFFFFFFFFFFFF DUP2 GT ISZERO PUSH2 0x120B JUMPI PUSH2 0x120A PUSH2 0xE22 JUMP JUMPDEST JUMPDEST PUSH2 0x1217 DUP9 DUP3 DUP10 ADD PUSH2 0x113B JUMP JUMPDEST SWAP3 POP SWAP3 POP POP SWAP3 SWAP6 POP SWAP3 SWAP6 SWAP1 SWAP4 POP JUMP JUMPDEST PUSH1 0x0 PUSH1 0x20 DUP3 DUP5 SUB SLT ISZERO PUSH2 0x123C JUMPI PUSH2 0x123B PUSH2 0xE1D JUMP JUMPDEST JUMPDEST PUSH1 0x0 PUSH2 0x124A DUP5 DUP3 DUP6 ADD PUSH2 0xFFC JUMP JUMPDEST SWAP2 POP POP SWAP3 SWAP2 POP POP JUMP JUMPDEST PUSH1 0x0 PUSH2 0x125E DUP3 PUSH2 0xF45 JUMP JUMPDEST SWAP1 POP SWAP2 SWAP1 POP JUMP JUMPDEST PUSH2 0x126E DUP2 PUSH2 0x1253 JUMP JUMPDEST DUP3 MSTORE POP POP JUMP JUMPDEST PUSH1 0x0 PUSH1 0x20 DUP3 ADD SWAP1 POP PUSH2 0x1289 PUSH1 0x0 DUP4 ADD DUP5 PUSH2 0x1265 JUMP JUMPDEST SWAP3 SWAP2 POP POP JUMP JUMPDEST PUSH1 0x0 DUP3 DUP3 MSTORE PUSH1 0x20 DUP3 ADD SWAP1 POP SWAP3 SWAP2 POP POP JUMP JUMPDEST PUSH32 0x47616D6520616C72656164792065786973747300000000000000000000000000 PUSH1 0x0 DUP3 ADD MSTORE POP JUMP JUMPDEST PUSH1 0x0 PUSH2 0x12D6 PUSH1 0x13 DUP4 PUSH2 0x128F JUMP JUMPDEST SWAP2 POP PUSH2 0x12E1 DUP3 PUSH2 0x12A0 JUMP JUMPDEST PUSH1 0x20 DUP3 ADD SWAP1 POP SWAP2 SWAP1 POP JUMP JUMPDEST PUSH1 0x0 PUSH1 0x20 DUP3 ADD SWAP1 POP DUP2 DUP2 SUB PUSH1 0x0 DUP4 ADD MSTORE PUSH2 0x1305 DUP2 PUSH2 0x12C9 JUMP JUMPDEST SWAP1 POP SWAP2 SWAP1 POP JUMP JUMPDEST PUSH1 0x0 PUSH1 0x20 DUP3 ADD SWAP1 POP PUSH2 0x1321 PUSH1 0x0 DUP4 ADD DUP5 PUSH2 0xE8A JUMP JUMPDEST SWAP3 SWAP2 POP POP JUMP JUMPDEST PUSH1 0x0 PUSH1 0x40 DUP3 ADD SWAP1 POP PUSH2 0x133C PUSH1 0x0 DUP4 ADD DUP6 PUSH2 0x106C JUMP JUMPDEST PUSH2 0x1349 PUSH1 0x20 DUP4 ADD DUP5 PUSH2 0xE8A JUMP JUMPDEST SWAP4 SWAP3 POP POP POP JUMP JUMPDEST PUSH2 0x1359 DUP2 PUSH2 0xE99 JUMP JUMPDEST DUP2 EQ PUSH2 0x1364 JUMPI PUSH1 0x0 DUP1 REVERT JUMPDEST POP JUMP JUMPDEST PUSH1 0x0 DUP2 MLOAD SWAP1 POP PUSH2 0x1376 DUP2 PUSH2 0x1350 JUMP JUMPDEST SWAP3 SWAP2 POP POP JUMP JUMPDEST PUSH1 0x0 PUSH1 0x20 DUP3 DUP5 SUB SLT ISZERO PUSH2 0x1392 JUMPI PUSH2 0x1391 PUSH2 0xE1D JUMP JUMPDEST JUMPDEST PUSH1 0x0 PUSH2 0x13A0 DUP5 DUP3 DUP6 ADD PUSH2 0x1367 JUMP JUMPDEST SWAP2 POP POP SWAP3 SWAP2 POP POP JUMP JUMPDEST PUSH32 0x47616D65206E6F74206163746976650000000000000000000000000000000000 PUSH1 0x0 DUP3 ADD MSTORE POP JUMP JUMPDEST PUSH1 0x0 PUSH2 0x13DF PUSH1 0xF DUP4 PUSH2 0x128F JUMP JUMPDEST SWAP2 POP PUSH2 0x13EA DUP3 PUSH2 0x13A9 JUMP JUMPDEST PUSH1 0x20 DUP3 ADD SWAP1 POP SWAP2 SWAP1 POP JUMP JUMPDEST PUSH1 0x0 PUSH1 0x20 DUP3 ADD SWAP1 POP DUP2 DUP2 SUB PUSH1 0x0 DUP4 ADD MSTORE PUSH2 0x140E DUP2 PUSH2 0x13D2 JUMP JUMPDEST SWAP1 POP SWAP2 SWAP1 POP JUMP JUMPDEST PUSH32 0x4C656E677468206D69736D617463680000000000000000000000000000000000 PUSH1 0x0 DUP3 ADD MSTORE POP JUMP JUMPDEST PUSH1 0x0 PUSH2 0x144B PUSH1 0xF DUP4 PUSH2 0x128F JUMP JUMPDEST SWAP2 POP PUSH2 0x1456 DUP3 PUSH2 0x1415 JUMP JUMPDEST PUSH1 0x20 DUP3 ADD SWAP1 POP SWAP2 SWAP1 POP JUMP JUMPDEST PUSH1 0x0 PUSH1 0x20 DUP3 ADD SWAP1 POP DUP2 DUP2 SUB PUSH1 0x0 DUP4 ADD MSTORE PUSH2 0x147A DUP2 PUSH2 0x143E JUMP JUMPDEST SWAP1 POP SWAP2 SWAP1 POP JUMP JUMPDEST PUSH32 0x4E487B7100000000000000000000000000000000000000000000000000000000 PUSH1 0x0 MSTORE PUSH1 0x32 PUSH1 0x4 MSTORE PUSH1 0x24 PUSH1 0x0 REVERT JUMPDEST PUSH32 0x4E487B7100000000000000000000000000000000000000000000000000000000 PUSH1 0x0 MSTORE PUSH1 0x11 PUSH1 0x4 MSTORE PUSH1 0x24 PUSH1 0x0 REVERT JUMPDEST PUSH1 0x0 PUSH2 0x14EA DUP3 PUSH2 0xE27 JUMP JUMPDEST SWAP2 POP PUSH2 0x14F5 DUP4 PUSH2 0xE27 JUMP JUMPDEST SWAP3 POP DUP3 DUP3 ADD SWAP1 POP DUP1 DUP3 GT ISZERO PUSH2 0x150D JUMPI PUSH2 0x150C PUSH2 0x14B0 JUMP JUMPDEST JUMPDEST SWAP3 SWAP2 POP POP JUMP JUMPDEST PUSH32 0x5061796F7574206578636565647320706F740000000000000000000000000000 PUSH1 0x0 DUP3 ADD MSTORE POP JUMP JUMPDEST PUSH1 0x0 PUSH2 0x1549 PUSH1 0x12 DUP4 PUSH2 0x128F JUMP JUMPDEST SWAP2 POP PUSH2 0x1554 DUP3 PUSH2 0x1513 JUMP JUMPDEST PUSH1 0x20 DUP3 ADD SWAP1 POP SWAP2 SWAP1 POP JUMP JUMPDEST PUSH1 0x0 PUSH1 0x20 DUP3 ADD SWAP1 POP DUP2 DUP2 SUB PUSH1 0x0 DUP4 ADD MSTORE PUSH2 0x1578 DUP2 PUSH2 0x153C JUMP JUMPDEST SWAP1 POP SWAP2 SWAP1 POP JUMP JUMPDEST PUSH32 0x5061796F7574207472616E73666572206661696C656400000000000000000000 PUSH1 0x0 DUP3 ADD MSTORE POP JUMP JUMPDEST PUSH1 0x0 PUSH2 0x15B5 PUSH1 0x16 DUP4 PUSH2 0x128F JUMP JUMPDEST SWAP2 POP PUSH2 0x15C0 DUP3 PUSH2 0x157F JUMP JUMPDEST PUSH1 0x20 DUP3 ADD SWAP1 POP SWAP2 SWAP1 POP JUMP JUMPDEST PUSH1 0x0 PUSH1 0x20 DUP3 ADD SWAP1 POP DUP2 DUP2 SUB PUSH1 0x0 DUP4 ADD MSTORE PUSH2 0x15E4 DUP2 PUSH2 0x15A8 JUMP JUMPDEST SWAP1 POP SWAP2 SWAP1 POP JUMP JUMPDEST PUSH1 0x0 DUP2 SWAP1 POP SWAP2 SWAP1 POP JUMP JUMPDEST PUSH1 0x0 DUP2 SWAP1 POP SWAP2 SWAP1 POP JUMP JUMPDEST PUSH1 0x0 PUSH2 0x161A PUSH2 0x1615 PUSH2 0x1610 DUP5 PUSH2 0x15EB JUMP JUMPDEST PUSH2 0xF19 JUMP JUMPDEST PUSH2 0x15F5 JUMP JUMPDEST SWAP1 POP SWAP2 SWAP1 POP JUMP JUMPDEST PUSH2 0x162A DUP2 PUSH2 0x15FF JUMP JUMPDEST DUP3 MSTORE POP POP JUMP JUMPDEST PUSH1 0x0 PUSH1 0x80 DUP3 ADD SWAP1 POP PUSH2 0x1645 PUSH1 0x0 DUP4 ADD DUP8 PUSH2 0x106C JUMP JUMPDEST PUSH2 0x1652 PUSH1 0x20 DUP4 ADD DUP7 PUSH2 0xEA5 JUMP JUMPDEST PUSH2 0x165F PUSH1 0x40 DUP4 ADD DUP6 PUSH2 0xE8A JUMP JUMPDEST PUSH2 0x166C PUSH1 0x60 DUP4 ADD DUP5 PUSH2 0x1621 JUMP JUMPDEST SWAP6 SWAP5 POP POP POP POP POP JUMP JUMPDEST PUSH1 0x0 DUP3 DUP3 MSTORE PUSH1 0x20 DUP3 ADD SWAP1 POP SWAP3 SWAP2 POP POP JUMP JUMPDEST PUSH1 0x0 DUP2 SWAP1 POP SWAP2 SWAP1 POP JUMP JUMPDEST PUSH2 0x1699 DUP2 PUSH2 0xFD3 JUMP JUMPDEST DUP3 MSTORE POP POP JUMP JUMPDEST PUSH1 0x0 PUSH2 0x16AB DUP4 DUP4 PUSH2 0x1690 JUMP JUMPDEST PUSH1 0x20 DUP4 ADD SWAP1 POP SWAP3 SWAP2 POP POP JUMP JUMPDEST PUSH1 0x0 PUSH2 0x16C6 PUSH1 0x20 DUP5 ADD DUP5 PUSH2 0xFFC JUMP JUMPDEST SWAP1 POP SWAP3 SWAP2 POP POP JUMP JUMPDEST PUSH1 0x0 PUSH1 0x20 DUP3 ADD SWAP1 POP SWAP2 SWAP1 POP JUMP JUMPDEST PUSH1 0x0 PUSH2 0x16E7 DUP4 DUP6 PUSH2 0x1675 JUMP JUMPDEST SWAP4 POP PUSH2 0x16F2 DUP3 PUSH2 0x1686 JUMP JUMPDEST DUP1 PUSH1 0x0 JUMPDEST DUP6 DUP2 LT ISZERO PUSH2 0x172B JUMPI PUSH2 0x1708 DUP3 DUP5 PUSH2 0x16B7 JUMP JUMPDEST PUSH2 0x1712 DUP9 DUP3 PUSH2 0x169F JUMP JUMPDEST SWAP8 POP PUSH2 0x171D DUP4 PUSH2 0x16CE JUMP JUMPDEST SWAP3 POP POP PUSH1 0x1 DUP2 ADD SWAP1 POP PUSH2 0x16F6 JUMP JUMPDEST POP DUP6 SWAP3 POP POP POP SWAP4 SWAP3 POP POP POP JUMP JUMPDEST PUSH1 0x0 DUP3 DUP3 MSTORE PUSH1 0x20 DUP3 ADD SWAP1 POP SWAP3 SWAP2 POP POP JUMP JUMPDEST PUSH1 0x0 DUP1 REVERT JUMPDEST DUP3 DUP2 DUP4 CALLDATACOPY POP POP POP JUMP JUMPDEST PUSH1 0x0 PUSH2 0x1763 DUP4 DUP6 PUSH2 0x1738 JUMP JUMPDEST SWAP4 POP PUSH32 0x7FFFFFFFFFFFFFFFFFFFFFFFFFFFFFFFFFFFFFFFFFFFFFFFFFFFFFFFFFFFFFF DUP4 GT ISZERO PUSH2 0x1796 JUMPI PUSH2 0x1795 PUSH2 0x1749 JUMP JUMPDEST JUMPDEST PUSH1 0x20 DUP4 MUL SWAP3 POP PUSH2 0x17A7 DUP4 DUP6 DUP5 PUSH2 0x174E JUMP JUMPDEST DUP3 DUP5 ADD SWAP1 POP SWAP4 SWAP3 POP POP POP JUMP JUMPDEST PUSH1 0x0 PUSH1 0x40 DUP3 ADD SWAP1 POP DUP2 DUP2 SUB PUSH1 0x0 DUP4 ADD MSTORE PUSH2 0x17CE DUP2 DUP7 DUP9 PUSH2 0x16DB JUMP JUMPDEST SWAP1 POP DUP2 DUP2 SUB PUSH1 0x20 DUP4 ADD MSTORE PUSH2 0x17E3 DUP2 DUP5 DUP7 PUSH2 0x1757 JUMP JUMPDEST SWAP1 POP SWAP6 SWAP5 POP POP POP POP POP JUMP JUMPDEST PUSH32 0x416C7265616479206A6F696E6564000000000000000000000000000000000000 PUSH1 0x0 DUP3 ADD MSTORE POP JUMP JUMPDEST PUSH1 0x0 PUSH2 0x1824 PUSH1 0xE DUP4 PUSH2 0x128F JUMP JUMPDEST SWAP2 POP PUSH2 0x182F DUP3 PUSH2 0x17EE JUMP JUMPDEST PUSH1 0x20 DUP3 ADD SWAP1 POP SWAP2 SWAP1 POP JUMP JUMPDEST PUSH1 0x0 PUSH1 0x20 DUP3 ADD SWAP1 POP DUP2 DUP2 SUB PUSH1 0x0 DUP4 ADD MSTORE PUSH2 0x1853 DUP2 PUSH2 0x1817 JUMP JUMPDEST SWAP1 POP SWAP2 SWAP1 POP JUMP JUMPDEST PUSH1 0x0 PUSH1 0x60 DUP3 ADD SWAP1 POP PUSH2 0x186F PUSH1 0x0 DUP4 ADD DUP7 PUSH2 0x106C JUMP JUMPDEST PUSH2 0x187C PUSH1 0x20 DUP4 ADD DUP6 PUSH2 0x106C JUMP JUMPDEST PUSH2 0x1889 PUSH1 0x40 DUP4 ADD DUP5 PUSH2 0xE8A JUMP JUMPDEST SWAP5 SWAP4 POP POP POP POP JUMP JUMPDEST PUSH32 0x5472616E73666572206661696C65640000000000000000000000000000000000 PUSH1 0x0 DUP3 ADD MSTORE POP JUMP JUMPDEST PUSH1 0x0 PUSH2 0x18C7 PUSH1 0xF DUP4 PUSH2 0x128F JUMP JUMPDEST SWAP2 POP PUSH2 0x18D2 DUP3 PUSH2 0x1891 JUMP JUMPDEST PUSH1 0x20 DUP3 ADD SWAP1 POP SWAP2 SWAP1 POP JUMP JUMPDEST PUSH1 0x0 PUSH1 0x20 DUP3 ADD SWAP1 POP DUP2 DUP2 SUB PUSH1 0x0 DUP4 ADD MSTORE PUSH2 0x18F6 DUP2 PUSH2 0x18BA JUMP JUMPDEST SWAP1 POP SWAP2 SWAP1 POP JUMP JUMPDEST PUSH1 0x0 DUP2 MLOAD SWAP1 POP PUSH2 0x190C DUP2 PUSH2 0xE31 JUMP JUMPDEST SWAP3 SWAP2 POP POP JUMP JUMPDEST PUSH1 0x0 PUSH1 0x20 DUP3 DUP5 SUB SLT ISZERO PUSH2 0x1928 JUMPI PUSH2 0x1927 PUSH2 0xE1D JUMP JUMPDEST JUMPDEST PUSH1 0x0 PUSH2 0x1936 DUP5 DUP3 DUP6 ADD PUSH2 0x18FD JUMP JUMPDEST SWAP2 POP POP SWAP3 SWAP2 POP POP JUMP INVALID LOG2 PUSH5 0x6970667358 0x22 SLT KECCAK256 SWAP12 0xBF PUSH11 0xCEDBFA7D6570A6A8ACBD2E 0xE9 PUSH3 0xF4C310 0x2D 0xDD 0x2A PUSH28 0x4AFFC2E2049FAFB25664736F6C634300081800330000000000000000 "},"methodIdentifiers":{"createGame(uint256,uint256)":"60104cef","emergencyWithdraw(address,uint256)":"95ccea67","finalizeGame(uint256,address[],uint256[])":"a06f8c9d","games(uint256)":"117a5b90","hasJoined(uint256,address)":"68194719","joinGame(uint256)":"efaa55a0","owner()":"8da5cb5b","renounceOwnership()":"715018a6","reputationNFT()":"fa488649","transferOwnership(address)":"f2fde38b","usdc()":"3e413bee"}}}}}