{
  "_format": "hh-sol-artifact-1",
  "contractName": "PokerGameManager",
  "sourceName": "contracts/PokerGameManager.sol",
  "abi": [
    {
      "inputs": [
        {
          "internalType": "address",
          "name": "_usdc",
          "type": "address"
        },
        {
          "internalType": "address",
          "name": "_reputationNFT",
          "type": "address"
        }
      ],
      "stateMutability": "nonpayable",
      "type": "constructor"
    },
    {
      "inputs": [
        {
          "internalType": "address",
          "name": "owner",
          "type": "address"
        }
      ],
      "name": "OwnableInvalidOwner",
      "type": "error"
    },
    {
      "inputs": [
        {
          "internalType": "address",
          "name": "account",
          "type": "address"
        }
      ],
      "name": "OwnableUnauthorizedAccount",
      "type": "error"
    },
    {
      "inputs": [],
      "name": "ReentrancyGuardReentrantCall",
      "type": "error"
    },
    {
      "anonymous": false,
      "inputs": [
        {
          "indexed": true,
          "internalType": "uint256",
          "name": "gameId",
          "type": "uint256"
        },
        {
          "indexed": false,
          "internalType": "uint256",
          "name": "buyIn",
          "type": "uint256"
        }
      ],
      "name": "GameCreated",
      "type": "event"
    },
    {
      "anonymous": false,
      "inputs": [
        {
          "indexed": true,
          "internalType": "uint256",
          "name": "gameId",
          "type": "uint256"
        },
        {
          "indexed": false,
          "internalType": "address[]",
          "name": "winners",
          "type": "address[]"
        },
        {
          "indexed": false,
          "internalType": "uint256[]",
          "name": "payouts",
          "type": "uint256[]"
        }
      ],
      "name": "GameFinalized",
      "type": "event"
    },
    {
      "anonymous": false,
      "inputs": [
        {
          "indexed": true,
          "internalType": "address",
          "name": "previousOwner",
          "type": "address"
        },
        {
          "indexed": true,
          "internalType": "address",
          "name": "newOwner",
          "type": "address"
        }
      ],
      "name": "OwnershipTransferred",
      "type": "event"
    },
    {
      "anonymous": false,
      "inputs": [
        {
          "indexed": true,
          "internalType": "uint256",
          "name": "gameId",
          "type": "uint256"
        },
        {
          "indexed": true,
          "internalType": "address",
          "name": "player",
          "type": "address"
        }
      ],
      "name": "PlayerJoined",
      "type": "event"
    },
    {
      "inputs": [
        {
          "internalType": "uint256",
          "name": "gameId",
          "type": "uint256"
        },
        {
          "internalType": "uint256",
          "name": "buyIn",
          "type": "uint256"
        }
      ],
      "name": "createGame",
      "outputs": [],
      "stateMutability": "nonpayable",
      "type": "function"
    },
    {
      "inputs": [
        {
          "internalType": "address",
          "name": "token",
          "type": "address"
        },
        {
          "internalType": "uint256",
          "name": "amount",
          "type": "uint256"
        }
      ],
      "name": "emergencyWithdraw",
      "outputs": [],
      "stateMutability": "nonpayable",
      "type": "function"
    },
    {
      "inputs": [
        {
          "internalType": "uint256",
          "name": "gameId",
          "type": "uint256"
        },
        {
          "internalType": "address[]",
          "name": "winners",
          "type": "address[]"
        },
        {
          "internalType": "uint256[]",
          "name": "payouts",
          "type": "uint256[]"
        }
      ],
      "name": "finalizeGame",
      "outputs": [],
      "stateMutability": "nonpayable",
      "type": "function"
    },
    {
      "inputs": [
        {
          "internalType": "uint256",
          "name": "",
          "type": "uint256"
        }
      ],
      "name": "games",
      "outputs": [
        {
          "internalType": "uint256",
          "name": "id",
          "type": "uint256"
        },
        {
          "internalType": "uint256",
          "name": "buyIn",
          "type": "uint256"
        },
        {
          "internalType": "uint256",
          "name": "totalPot",
          "type": "uint256"
        },
        {
          "internalType": "bool",
          "name": "isActive",
          "type": "bool"
        }
      ],
      "stateMutability": "view",
      "type": "function"
    },
    {
      "inputs": [
        {
          "internalType": "uint256",
          "name": "",
          "type": "uint256"
        },
        {
          "internalType": "address",
          "name": "",
          "type": "address"
        }
      ],
      "name": "hasJoined",
      "outputs": [
        {
          "internalType": "bool",
          "name": "",
          "type": "bool"
        }
      ],
      "stateMutability": "view",
      "type": "function"
    },
    {
      "inputs": [
        {
          "internalType": "uint256",
          "name": "gameId",
          "type": "uint256"
        }
      ],
      "name": "joinGame",
      "outputs": [],
      "stateMutability": "nonpayable",
      "type": "function"
    },
    {
      "inputs": [],
      "name": "owner",
      "outputs": [
        {
          "internalType": "address",
          "name": "",
          "type": "address"
        }
      ],
      "stateMutability": "view",
      "type": "function"
    },
    {
      "inputs": [],
      "name": "renounceOwnership",
      "outputs": [],
      "stateMutability": "nonpayable",
      "type": "function"
    },
    {
      "inputs": [],
      "name": "reputationNFT",
      "outputs": [
        {
          "internalType": "contract ReputationNFT",
          "name": "",
          "type": "address"
        }
      ],
      "stateMutability": "view",
      "type": "function"
    },
    {
      "inputs": [
        {
          "internalType": "address",
          "name": "newOwner",
          "type": "address"
        }
      ],
      "name": "transferOwnership",
      "outputs": [],
      "stateMutability": "nonpayable",
      "type": "function"
    },
    {
      "inputs": [],
      "name": "usdc",
      "outputs": [
        {
          "internalType": "contract IERC20",
          "name": "",
          "type": "address"
        }
      ],
      "stateMutability": "view",
      "type": "function"
    }
  ],
  "bytecode": "0x60806040523480156200001157600080fd5b5060405162001c7838038062001c7883398181016040528101906200003791906200027e565b33600073ffffffffffffffffffffffffffffffffffffffff168173ffffffffffffffffffffffffffffffffffffffff1603620000ad5760006040517f1e4fbdf7000000000000000000000000000000000000000000000000000000008152600401620000a49190620002d6565b60405180910390fd5b620000be816200015060201b60201c565b506001808190555081600260006101000a81548173ffffffffffffffffffffffffffffffffffffffff021916908373ffffffffffffffffffffffffffffffffffffffff16021790555080600360006101000a81548173ffffffffffffffffffffffffffffffffffffffff021916908373ffffffffffffffffffffffffffffffffffffffff1602179055505050620002f3565b60008060009054906101000a900473ffffffffffffffffffffffffffffffffffffffff169050816000806101000a81548173ffffffffffffffffffffffffffffffffffffffff021916908373ffffffffffffffffffffffffffffffffffffffff1602179055508173ffffffffffffffffffffffffffffffffffffffff168173ffffffffffffffffffffffffffffffffffffffff167f8be0079c531659141344cd1fd0a4f28419497f9722a3daafe3b4186f6b6457e060405160405180910390a35050565b600080fd5b600073ffffffffffffffffffffffffffffffffffffffff82169050919050565b6000620002468262000219565b9050919050565b620002588162000239565b81146200026457600080fd5b50565b60008151905062000278816200024d565b92915050565b6000806040838503121562000298576200029762000214565b5b6000620002a88582860162000267565b9250506020620002bb8582860162000267565b9150509250929050565b620002d08162000239565b82525050565b6000602082019050620002ed6000830184620002c5565b92915050565b61197580620003036000396000f3fe608060405234801561001057600080fd5b50600436106100a95760003560e01c80638da5cb5b116100715780638da5cb5b1461015557806395ccea6714610173578063a06f8c9d1461018f578063efaa55a0146101ab578063f2fde38b146101c7578063fa488649146101e3576100a9565b8063117a5b90146100ae5780633e413bee146100e157806360104cef146100ff578063681947191461011b578063715018a61461014b575b600080fd5b6100c860048036038101906100c39190610e5d565b610201565b6040516100d89493929190610eb4565b60405180910390f35b6100e961023e565b6040516100f69190610f78565b60405180910390f35b61011960048036038101906101149190610f93565b610264565b005b61013560048036038101906101309190611011565b610340565b6040516101429190611051565b60405180910390f35b61015361036f565b005b61015d610383565b60405161016a919061107b565b60405180910390f35b61018d60048036038101906101889190611096565b6103ac565b005b6101a960048036038101906101a49190611191565b61043e565b005b6101c560048036038101906101c09190610e5d565b6107ff565b005b6101e160048036038101906101dc9190611226565b610bcf565b005b6101eb610c55565b6040516101f89190611274565b60405180910390f35b60046020528060005260406000206000915090508060000154908060010154908060020154908060030160009054906101000a900460ff16905084565b600260009054906101000a900473ffffffffffffffffffffffffffffffffffffffff1681565b60006004600084815260200190815260200160002060000154146102bd576040517f08c379a00000000000000000000000000000000000000000000000000000000081526004016102b4906112ec565b60405180910390fd5b600060046000848152602001908152602001600020905082816000018190555081816001018190555060018160030160006101000a81548160ff021916908315150217905550827fa26856d25e558c79e1632806bc6824075cf59885a115825f2aab62385a3f714283604051610333919061130c565b60405180910390a2505050565b60056020528160005260406000206020528060005260406000206000915091509054906101000a900460ff1681565b610377610c7b565b6103816000610d02565b565b60008060009054906101000a900473ffffffffffffffffffffffffffffffffffffffff16905090565b6103b4610c7b565b8173ffffffffffffffffffffffffffffffffffffffff1663a9059cbb6103d8610383565b836040518363ffffffff1660e01b81526004016103f6929190611327565b6020604051808303816000875af1158015610415573d6000803e3d6000fd5b505050506040513d601f19601f82011682018060405250810190610439919061137c565b505050565b610446610c7b565b61044e610dc6565b60006004600087815260200190815260200160002090508060030160009054906101000a900460ff166104b6576040517f08c379a00000000000000000000000000000000000000000000000000000000081526004016104ad906113f5565b60405180910390fd5b8282905085859050146104fe576040517f08c379a00000000000000000000000000000000000000000000000000000000081526004016104f590611461565b60405180910390fd5b6000805b84849050811015610541578484828181106105205761051f611481565b5b905060200201358261053291906114df565b91508080600101915050610502565b508160020154811115610589576040517f08c379a00000000000000000000000000000000000000000000000000000000081526004016105809061155f565b60405180910390fd5b60008260030160006101000a81548160ff02191690831515021790555060005b868690508110156107af57600260009054906101000a900473ffffffffffffffffffffffffffffffffffffffff1673ffffffffffffffffffffffffffffffffffffffff1663a9059cbb88888481811061060557610604611481565b5b905060200201602081019061061a9190611226565b87878581811061062d5761062c611481565b5b905060200201356040518363ffffffff1660e01b8152600401610651929190611327565b6020604051808303816000875af1158015610670573d6000803e3d6000fd5b505050506040513d601f19601f82011682018060405250810190610694919061137c565b6106d3576040517f08c379a00000000000000000000000000000000000000000000000000000000081526004016106ca906115cb565b60405180910390fd5b600360009054906101000a900473ffffffffffffffffffffffffffffffffffffffff1673ffffffffffffffffffffffffffffffffffffffff166392b7035d88888481811061072457610723611481565b5b90506020020160208101906107399190611226565b600188888681811061074e5761074d611481565b5b90506020020135600a6040518563ffffffff1660e01b81526004016107769493929190611630565b600060405180830381600087803b15801561079057600080fd5b505af19250505080156107a1575060015b5080806001019150506105a9565b50867f06affe9f3149ed790696bfb6d1d89f37674691839ff296c6ef6289bc51c1060b878787876040516107e694939291906117b3565b60405180910390a250506107f8610e0c565b5050505050565b610807610dc6565b60006004600083815260200190815260200160002090508060030160009054906101000a900460ff1661086f576040517f08c379a0000000000000000000000000000000000000000000000000000000008152600401610866906113f5565b60405180910390fd5b6005600083815260200190815260200160002060003373ffffffffffffffffffffffffffffffffffffffff1673ffffffffffffffffffffffffffffffffffffffff16815260200190815260200160002060009054906101000a900460ff161561090d576040517f08c379a00000000000000000000000000000000000000000000000000000000081526004016109049061183a565b60405180910390fd5b600260009054906101000a900473ffffffffffffffffffffffffffffffffffffffff1673ffffffffffffffffffffffffffffffffffffffff166323b872dd333084600101546040518463ffffffff1660e01b81526004016109709392919061185a565b6020604051808303816000875af115801561098f573d6000803e3d6000fd5b505050506040513d601f19601f820116820180604052508101906109b3919061137c565b6109f2576040517f08c379a00000000000000000000000000000000000000000000000000000000081526004016109e9906118dd565b60405180910390fd5b80600401339080600181540180825580915050600190039060005260206000200160009091909190916101000a81548173ffffffffffffffffffffffffffffffffffffffff021916908373ffffffffffffffffffffffffffffffffffffffff1602179055508060010154816002016000828254610a6f91906114df565b9250508190555060016005600084815260200190815260200160002060003373ffffffffffffffffffffffffffffffffffffffff1673ffffffffffffffffffffffffffffffffffffffff16815260200190815260200160002060006101000a81548160ff0219169083151502179055506000600360009054906101000a900473ffffffffffffffffffffffffffffffffffffffff1673ffffffffffffffffffffffffffffffffffffffff16636511bf2e336040518263ffffffff1660e01b8152600401610b3c919061107b565b602060405180830381865afa158015610b59573d6000803e3d6000fd5b505050506040513d601f19601f82011682018060405250810190610b7d9190611912565b50503373ffffffffffffffffffffffffffffffffffffffff16827f87969bc7faf902221a147b95ceba76e011c5efb0339a0a8ee7a2bb82d9cfbbd660405160405180910390a350610bcc610e0c565b50565b610bd7610c7b565b600073ffffffffffffffffffffffffffffffffffffffff168173ffffffffffffffffffffffffffffffffffffffff1603610c495760006040517f1e4fbdf7000000000000000000000000000000000000000000000000000000008152600401610c40919061107b565b60405180910390fd5b610c5281610d02565b50565b600360009054906101000a900473ffffffffffffffffffffffffffffffffffffffff1681565b610c83610e15565b73ffffffffffffffffffffffffffffffffffffffff16610ca1610383565b73ffffffffffffffffffffffffffffffffffffffff1614610d0057610cc4610e15565b6040517f118cdaa7000000000000000000000000000000000000000000000000000000008152600401610cf7919061107b565b60405180910390fd5b565b60008060009054906101000a900473ffffffffffffffffffffffffffffffffffffffff169050816000806101000a81548173ffffffffffffffffffffffffffffffffffffffff021916908373ffffffffffffffffffffffffffffffffffffffff1602179055508173ffffffffffffffffffffffffffffffffffffffff168173ffffffffffffffffffffffffffffffffffffffff167f8be0079c531659141344cd1fd0a4f28419497f9722a3daafe3b4186f6b6457e060405160405180910390a35050565b600260015403610e02576040517f3ee5aeb500000000000000000000000000000000000000000000000000000000815260040160405180910390fd5b6002600181905550565b60018081905550565b600033905090565b600080fd5b600080fd5b6000819050919050565b610e3a81610e27565b8114610e4557600080fd5b50565b600081359050610e5781610e31565b92915050565b600060208284031215610e7357610e72610e1d565b5b6000610e8184828501610e48565b91505092915050565b610e9381610e27565b82525050565b60008115159050919050565b610eae81610e99565b82525050565b6000608082019050610ec96000830187610e8a565b610ed66020830186610e8a565b610ee36040830185610e8a565b610ef06060830184610ea5565b95945050505050565b600073ffffffffffffffffffffffffffffffffffffffff82169050919050565b6000819050919050565b6000610f3e610f39610f3484610ef9565b610f19565b610ef9565b9050919050565b6000610f5082610f23565b9050919050565b6000610f6282610f45565b9050919050565b610f7281610f57565b82525050565b6000602082019050610f8d6000830184610f69565b92915050565b60008060408385031215610faa57610fa9610e1d565b5b6000610fb885828601610e48565b9250506020610fc985828601610e48565b9150509250929050565b6000610fde82610ef9565b9050919050565b610fee81610fd3565b8114610ff957600080fd5b50565b60008135905061100b81610fe5565b92915050565b6000806040838503121561102857611027610e1d565b5b600061103685828601610e48565b925050602061104785828601610ffc565b9150509250929050565b60006020820190506110666000830184610ea5565b92915050565b61107581610fd3565b82525050565b6000602082019050611090600083018461106c565b92915050565b600080604083850312156110ad576110ac610e1d565b5b60006110bb85828601610ffc565b92505060206110cc85828601610e48565b9150509250929050565b600080fd5b600080fd5b600080fd5b60008083601f8401126110fb576110fa6110d6565b5b8235905067ffffffffffffffff811115611118576111176110db565b5b602083019150836020820283011115611134576111336110e0565b5b9250929050565b60008083601f840112611151576111506110d6565b5b8235905067ffffffffffffffff81111561116e5761116d6110db565b5b60208301915083602082028301111561118a576111896110e0565b5b9250929050565b6000806000806000606086880312156111ad576111ac610e1d565b5b60006111bb88828901610e48565b955050602086013567ffffffffffffffff8111156111dc576111db610e22565b5b6111e8888289016110e5565b9450945050604086013567ffffffffffffffff81111561120b5761120a610e22565b5b6112178882890161113b565b92509250509295509295909350565b60006020828403121561123c5761123b610e1d565b5b600061124a84828501610ffc565b91505092915050565b600061125e82610f45565b9050919050565b61126e81611253565b82525050565b60006020820190506112896000830184611265565b92915050565b600082825260208201905092915050565b7f47616d6520616c72656164792065786973747300000000000000000000000000600082015250565b60006112d660138361128f565b91506112e1826112a0565b602082019050919050565b60006020820190508181036000830152611305816112c9565b9050919050565b60006020820190506113216000830184610e8a565b92915050565b600060408201905061133c600083018561106c565b6113496020830184610e8a565b9392505050565b61135981610e99565b811461136457600080fd5b50565b60008151905061137681611350565b92915050565b60006020828403121561139257611391610e1d565b5b60006113a084828501611367565b91505092915050565b7f47616d65206e6f74206163746976650000000000000000000000000000000000600082015250565b60006113df600f8361128f565b91506113ea826113a9565b602082019050919050565b6000602082019050818103600083015261140e816113d2565b9050919050565b7f4c656e677468206d69736d617463680000000000000000000000000000000000600082015250565b600061144b600f8361128f565b915061145682611415565b602082019050919050565b6000602082019050818103600083015261147a8161143e565b9050919050565b7f4e487b7100000000000000000000000000000000000000000000000000000000600052603260045260246000fd5b7f4e487b7100000000000000000000000000000000000000000000000000000000600052601160045260246000fd5b60006114ea82610e27565b91506114f583610e27565b925082820190508082111561150d5761150c6114b0565b5b92915050565b7f5061796f7574206578636565647320706f740000000000000000000000000000600082015250565b600061154960128361128f565b915061155482611513565b602082019050919050565b600060208201905081810360008301526115788161153c565b9050919050565b7f5061796f7574207472616e73666572206661696c656400000000000000000000600082015250565b60006115b560168361128f565b91506115c08261157f565b602082019050919050565b600060208201905081810360008301526115e4816115a8565b9050919050565b6000819050919050565b6000819050919050565b600061161a611615611610846115eb565b610f19565b6115f5565b9050919050565b61162a816115ff565b82525050565b6000608082019050611645600083018761106c565b6116526020830186610ea5565b61165f6040830185610e8a565b61166c6060830184611621565b95945050505050565b600082825260208201905092915050565b6000819050919050565b61169981610fd3565b82525050565b60006116ab8383611690565b60208301905092915050565b60006116c66020840184610ffc565b905092915050565b6000602082019050919050565b60006116e78385611675565b93506116f282611686565b8060005b8581101561172b5761170882846116b7565b611712888261169f565b975061171d836116ce565b9250506001810190506116f6565b5085925050509392505050565b600082825260208201905092915050565b600080fd5b82818337505050565b60006117638385611738565b93507f07ffffffffffffffffffffffffffffffffffffffffffffffffffffffffffffff83111561179657611795611749565b5b6020830292506117a783858461174e565b82840190509392505050565b600060408201905081810360008301526117ce8186886116db565b905081810360208301526117e3818486611757565b905095945050505050565b7f416c7265616479206a6f696e6564000000000000000000000000000000000000600082015250565b6000611824600e8361128f565b915061182f826117ee565b602082019050919050565b6000602082019050818103600083015261185381611817565b9050919050565b600060608201905061186f600083018661106c565b61187c602083018561106c565b6118896040830184610e8a565b949350505050565b7f5472616e73666572206661696c65640000000000000000000000000000000000600082015250565b60006118c7600f8361128f565b91506118d282611891565b602082019050919050565b600060208201905081810360008301526118f6816118ba565b9050919050565b60008151905061190c81610e31565b92915050565b60006020828403121561192857611927610e1d565b5b6000611936848285016118fd565b9150509291505056fea26469706673582212209bbf6acedbfa7d6570a6a8acbd2ee962f4c3102ddd2a7b4affc2e2049fafb25664736f6c63430008180033",
  "linkReferences": {},
  "deployedLinkReferences": {}
}