{
  "_format": "hh-sol-artifact-1",
  "contractName": "ReputationNFT",
  "sourceName": "contracts/ReputationNFT.sol",
  "abi": [
    {
      "inputs": [],
      "stateMutability": "nonpayable",
      "type": "constructor"
    },
    {
      "inputs": [
        {
          "internalType": "address",
          "name": "sender",
          "type": "address"
        },
        {
          "internalType": "uint256",
          "name": "tokenId",
          "type": "uint256"
        },
        {
          "internalType": "address",
          "name": "owner",
          "type": "address"
        }
      ],
      "name": "ERC721IncorrectOwner",
      "type": "error"
    },
    {
      "inputs": [
        {
          "internalType": "address",
          "name": "operator",
          "type": "address"
        },
        {
          "internalType": "uint256",
          "name": "tokenId",
          "type": "uint256"
        }
      ],
      "name": "ERC721InsufficientApproval",
      "type": "error"
    },
    {
      "inputs": [
        {
          "internalType": "address",
          "name": "approver",
          "type": "address"
        }
      ],
      "name": "ERC721InvalidApprover",
      "type": "error"
    },
    {
      "inputs": [
        {
          "internalType": "address",
          "name": "operator",
          "type": "address"
        }
      ],
      "name": "ERC721InvalidOperator",
      "type": "error"
    },
    {
      "inputs": [
        {
          "internalType": "address",
          "name": "owner",
          "type": "address"
        }
      ],
      "name": "ERC721InvalidOwner",
      "type": "error"
    },
    {
      "inputs": [
        {
          "internalType": "address",
          "name": "receiver",
          "type": "address"
        }
      ],
      "name": "ERC721InvalidReceiver",
      "type": "error"
    },
    {
      "inputs": [
        {
          "internalType": "address",
          "name": "sender",
          "type": "address"
        }
      ],
      "name": "ERC721InvalidSender",
      "type": "error"
    },
    {
      "inputs": [
        {
          "internalType": "uint256",
          "name": "tokenId",
          "type": "uint256"
        }
      ],
      "name": "ERC721NonexistentToken",
      "type": "error"
    },
    {
      "inputs": [
        {
          "internalType": "address",
          "name": "owner",
          "type": "address"
        }
      ],
      "name": "OwnableInvalidOwner",
      "type": "error"
    },
    {
      "inputs": [
        {
          "internalType": "address",
          "name": "account",
          "type": "address"
        }
      ],
      "name": "OwnableUnauthorizedAccount",
      "type": "error"
    },
    {
      "anonymous": false,
      "inputs": [
        {
          "indexed": true,
          "internalType": "address",
          "name": "owner",
          "type": "address"
        },
        {
          "indexed": true,
          "internalType": "address",
          "name": "approved",
          "type": "address"
        },
        {
          "indexed": true,
          "internalType": "uint256",
          "name": "tokenId",
          "type": "uint256"
        }
      ],
      "name": "Approval",
      "type": "event"
    },
    {
      "anonymous": false,
      "inputs": [
        {
          "indexed": true,
          "internalType": "address",
          "name": "owner",
          "type": "address"
        },
        {
          "indexed": true,
          "internalType": "address",
          "name": "operator",
          "type": "address"
        },
        {
          "indexed": false,
          "internalType": "bool",
          "name": "approved",
          "type": "bool"
        }
      ],
      "name": "ApprovalForAll",
      "type": "event"
    },
    {
      "anonymous": false,
      "inputs": [
        {
          "indexed": true,
          "internalType": "address",
          "name": "previousOwner",
          "type": "address"
        },
        {
          "indexed": true,
          "internalType": "address",
          "name": "newOwner",
          "type": "address"
        }
      ],
      "name": "OwnershipTransferred",
      "type": "event"
    },
    {
      "anonymous": false,
      "inputs": [
        {
          "indexed": true,
          "internalType": "address",
          "name": "player",
          "type": "address"
        },
        {
          "indexed": false,
          "internalType": "uint256",
          "name": "newScore",
          "type": "uint256"
        }
      ],
      "name": "ReputationUpdated",
      "type": "event"
    },
    {
      "anonymous": false,
      "inputs": [
        {
          "indexed": true,
          "internalType": "address",
          "name": "player",
          "type": "address"
        },
        {
          "indexed": false,
          "internalType": "uint256",
          "name": "gamesPlayed",
          "type": "uint256"
        },
        {
          "indexed": false,
          "internalType": "uint256",
          "name": "wins",
          "type": "uint256"
        }
      ],
      "name": "StatsUpdated",
      "type": "event"
    },
    {
      "anonymous": false,
      "inputs": [
        {
          "indexed": true,
          "internalType": "address",
          "name": "from",
          "type": "address"
        },
        {
          "indexed": true,
          "internalType": "address",
          "name": "to",
          "type": "address"
        },
        {
          "indexed": true,
          "internalType": "uint256",
          "name": "tokenId",
          "type": "uint256"
        }
      ],
      "name": "Transfer",
      "type": "event"
    },
    {
      "inputs": [
        {
          "internalType": "address",
          "name": "",
          "type": "address"
        }
      ],
      "name": "addressToTokenId",
      "outputs": [
        {
          "internalType": "uint256",
          "name": "",
          "type": "uint256"
        }
      ],
      "stateMutability": "view",
      "type": "function"
    },
    {
      "inputs": [
        {
          "internalType": "address",
          "name": "to",
          "type": "address"
        },
        {
          "internalType": "uint256",
          "name": "tokenId",
          "type": "uint256"
        }
      ],
      "name": "approve",
      "outputs": [],
      "stateMutability": "nonpayable",
      "type": "function"
    },
    {
      "inputs": [
        {
          "internalType": "address",
          "name": "owner",
          "type": "address"
        }
      ],
      "name": "balanceOf",
      "outputs": [
        {
          "internalType": "uint256",
          "name": "",
          "type": "uint256"
        }
      ],
      "stateMutability": "view",
      "type": "function"
    },
    {
      "inputs": [
        {
          "internalType": "uint256",
          "name": "tokenId",
          "type": "uint256"
        }
      ],
      "name": "getApproved",
      "outputs": [
        {
          "internalType": "address",
          "name": "",
          "type": "address"
        }
      ],
      "stateMutability": "view",
      "type": "function"
    },
    {
      "inputs": [
        {
          "internalType": "address",
          "name": "owner",
          "type": "address"
        },
        {
          "internalType": "address",
          "name": "operator",
          "type": "address"
        }
      ],
      "name": "isApprovedForAll",
      "outputs": [
        {
          "internalType": "bool",
          "name": "",
          "type": "bool"
        }
      ],
      "stateMutability": "view",
      "type": "function"
    },
    {
      "inputs": [
        {
          "internalType": "address",
          "name": "player",
          "type": "address"
        }
      ],
      "name": "mintProfile",
      "outputs": [
        {
          "internalType": "uint256",
          "name": "",
          "type": "uint256"
        }
      ],
      "stateMutability": "nonpayable",
      "type": "function"
    },
    {
      "inputs": [],
      "name": "name",
      "outputs": [
        {
          "internalType": "string",
          "name": "",
          "type": "string"
        }
      ],
      "stateMutability": "view",
      "type": "function"
    },
    {
      "inputs": [],
      "name": "owner",
      "outputs": [
        {
          "internalType": "address",
          "name": "",
          "type": "address"
        }
      ],
      "stateMutability": "view",
      "type": "function"
    },
    {
      "inputs": [
        {
          "internalType": "uint256",
          "name": "tokenId",
          "type": "uint256"
        }
      ],
      "name": "ownerOf",
      "outputs": [
        {
          "internalType": "address",
          "name": "",
          "type": "address"
        }
      ],
      "stateMutability": "view",
      "type": "function"
    },
    {
      "inputs": [
        {
          "internalType": "uint256",
          "name": "",
          "type": "uint256"
        }
      ],
      "name": "playerStats",
      "outputs": [
        {
          "internalType": "uint256",
          "name": "gamesPlayed",
          "type": "uint256"
        },
        {
          "internalType": "uint256",
          "name": "wins",
          "type": "uint256"
        },
        {
          "internalType": "uint256",
          "name": "totalWinnings",
          "type": "uint256"
        },
        {
          "internalType": "uint256",
          "name": "reputationScore",
          "type": "uint256"
        }
      ],
      "stateMutability": "view",
      "type": "function"
    },
    {
      "inputs": [],
      "name": "renounceOwnership",
      "outputs": [],
      "stateMutability": "nonpayable",
      "type": "function"
    },
    {
      "inputs": [
        {
          "internalType": "address",
          "name": "from",
          "type": "address"
        },
        {
          "internalType": "address",
          "name": "to",
          "type": "address"
        },
        {
          "internalType": "uint256",
          "name": "tokenId",
          "type": "uint256"
        }
      ],
      "name": "safeTransferFrom",
      "outputs": [],
      "stateMutability": "nonpayable",
      "type": "function"
    },
    {
      "inputs": [
        {
          "internalType": "address",
          "name": "from",
          "type": "address"
        },
        {
          "internalType": "address",
          "name": "to",
          "type": "address"
        },
        {
          "internalType": "uint256",
          "name": "tokenId",
          "type": "uint256"
        },
        {
          "internalType": "bytes",
          "name": "data",
          "type": "bytes"
        }
      ],
      "name": "safeTransferFrom",
      "outputs": [],
      "stateMutability": "nonpayable",
      "type": "function"
    },
    {
      "inputs": [
        {
          "internalType": "address",
          "name": "operator",
          "type": "address"
        },
        {
          "internalType": "bool",
          "name": "approved",
          "type": "bool"
        }
      ],
      "name": "setApprovalForAll",
      "outputs": [],
      "stateMutability": "nonpayable",
      "type": "function"
    },
    {
      "inputs": [
        {
          "internalType": "bytes4",
          "name": "interfaceId",
          "type": "bytes4"
        }
      ],
      "name": "supportsInterface",
      "outputs": [
        {
          "internalType": "bool",
          "name": "",
          "type": "bool"
        }
      ],
      "stateMutability": "view",
      "type": "function"
    },
    {
      "inputs": [],
      "name": "symbol",
      "outputs": [
        {
          "internalType": "string",
          "name": "",
          "type": "string"
        }
      ],
      "stateMutability": "view",
      "type": "function"
    },
    {
      "inputs": [
        {
          "internalType": "uint256",
          "name": "tokenId",
          "type": "uint256"
        }
      ],
      "name": "tokenURI",
      "outputs": [
        {
          "internalType": "string",
          "name": "",
          "type": "string"
        }
      ],
      "stateMutability": "view",
      "type": "function"
    },
    {
      "inputs": [
        {
          "internalType": "address",
          "name": "from",
          "type": "address"
        },
        {
          "internalType": "address",
          "name": "to",
          "type": "address"
        },
        {
          "internalType": "uint256",
          "name": "tokenId",
          "type": "uint256"
        }
      ],
      "name": "transferFrom",
      "outputs": [],
      "stateMutability": "nonpayable",
      "type": "function"
    },
    {
      "inputs": [
        {
          "internalType": "address",
          "name": "newOwner",
          "type": "address"
        }
      ],
      "name": "transferOwnership",
      "outputs": [],
      "stateMutability": "nonpayable",
      "type": "function"
    },
    {
      "inputs": [
        {
          "internalType": "address",
          "name": "player",
          "type": "address"
        },
        {
          "internalType": "bool",
          "name": "isWin",
          "type": "bool"
        },
        {
          "internalType": "uint256",
          "name": "winnings",
          "type": "uint256"
        },
        {
          "internalType": "int256",
          "name": "repChange",
          "type": "int256"
        }
      ],
      "name": "updateStats",
      "outputs": [],
      "stateMutability": "nonpayable",
      "type": "function"
    }
  ],
  "bytecode": "0x60806040523480156200001157600080fd5b50336040518060400160405280600f81526020017f506f6b657252657075746174696f6e00000000000000000000000000000000008152506040518060400160405280600481526020017f5052455000000000000000000000000000000000000000000000000000000000815250816000908162000090919062000472565b508060019081620000a2919062000472565b505050600073ffffffffffffffffffffffffffffffffffffffff168173ffffffffffffffffffffffffffffffffffffffff16036200011a5760006040517f1e4fbdf70000000000000000000000000000000000000000000000000000000081526004016200011191906200059e565b60405180910390fd5b6200012b816200013260201b60201c565b50620005bb565b6000600660009054906101000a900473ffffffffffffffffffffffffffffffffffffffff16905081600660006101000a81548173ffffffffffffffffffffffffffffffffffffffff021916908373ffffffffffffffffffffffffffffffffffffffff1602179055508173ffffffffffffffffffffffffffffffffffffffff168173ffffffffffffffffffffffffffffffffffffffff167f8be0079c531659141344cd1fd0a4f28419497f9722a3daafe3b4186f6b6457e060405160405180910390a35050565b600081519050919050565b7f4e487b7100000000000000000000000000000000000000000000000000000000600052604160045260246000fd5b7f4e487b7100000000000000000000000000000000000000000000000000000000600052602260045260246000fd5b600060028204905060018216806200027a57607f821691505b60208210810362000290576200028f62000232565b5b50919050565b60008190508160005260206000209050919050565b60006020601f8301049050919050565b600082821b905092915050565b600060088302620002fa7fffffffffffffffffffffffffffffffffffffffffffffffffffffffffffffffff82620002bb565b620003068683620002bb565b95508019841693508086168417925050509392505050565b6000819050919050565b6000819050919050565b6000620003536200034d62000347846200031e565b62000328565b6200031e565b9050919050565b6000819050919050565b6200036f8362000332565b620003876200037e826200035a565b848454620002c8565b825550505050565b600090565b6200039e6200038f565b620003ab81848462000364565b505050565b5b81811015620003d357620003c760008262000394565b600181019050620003b1565b5050565b601f8211156200042257620003ec8162000296565b620003f784620002ab565b8101602085101562000407578190505b6200041f6200041685620002ab565b830182620003b0565b50505b505050565b600082821c905092915050565b6000620004476000198460080262000427565b1980831691505092915050565b600062000462838362000434565b9150826002028217905092915050565b6200047d82620001f8565b67ffffffffffffffff81111562000499576200049862000203565b5b620004a5825462000261565b620004b2828285620003d7565b600060209050601f831160018114620004ea5760008415620004d5578287015190505b620004e1858262000454565b86555062000551565b601f198416620004fa8662000296565b60005b828110156200052457848901518255600182019150602085019450602081019050620004fd565b8683101562000544578489015162000540601f89168262000434565b8355505b6001600288020188555050505b505050505050565b600073ffffffffffffffffffffffffffffffffffffffff82169050919050565b6000620005868262000559565b9050919050565b620005988162000579565b82525050565b6000602082019050620005b560008301846200058d565b92915050565b61294880620005cb6000396000f3fe608060405234801561001057600080fd5b506004361061012c5760003560e01c8063715018a6116100ad578063b776fc7311610071578063b776fc7314610341578063b88d4fde14610374578063c87b56dd14610390578063e985e9c5146103c0578063f2fde38b146103f05761012c565b8063715018a6146102c35780638da5cb5b146102cd57806392b7035d146102eb57806395d89b4114610307578063a22cb465146103255761012c565b80632b39b085116100f45780632b39b085146101e757806342842e0e146102175780636352211e146102335780636511bf2e1461026357806370a08231146102935761012c565b806301ffc9a71461013157806306fdde0314610161578063081812fc1461017f578063095ea7b3146101af57806323b872dd146101cb575b600080fd5b61014b60048036038101906101469190611df6565b61040c565b6040516101589190611e3e565b60405180910390f35b6101696104ee565b6040516101769190611ee9565b60405180910390f35b61019960048036038101906101949190611f41565b610580565b6040516101a69190611faf565b60405180910390f35b6101c960048036038101906101c49190611ff6565b61059c565b005b6101e560048036038101906101e09190612036565b6105b2565b005b61020160048036038101906101fc9190612089565b6106b4565b60405161020e91906120c5565b60405180910390f35b610231600480360381019061022c9190612036565b610813565b005b61024d60048036038101906102489190611f41565b610833565b60405161025a9190611faf565b60405180910390f35b61027d60048036038101906102789190612089565b610845565b60405161028a91906120c5565b60405180910390f35b6102ad60048036038101906102a89190612089565b61085d565b6040516102ba91906120c5565b60405180910390f35b6102cb610917565b005b6102d561092b565b6040516102e29190611faf565b60405180910390f35b61030560048036038101906103009190612142565b610955565b005b61030f610b73565b60405161031c9190611ee9565b60405180910390f35b61033f600480360381019061033a91906121a9565b610c05565b005b61035b60048036038101906103569190611f41565b610c1b565b60405161036b94939291906121e9565b60405180910390f35b61038e60048036038101906103899190612363565b610c4b565b005b6103aa60048036038101906103a59190611f41565b610c70565b6040516103b79190611ee9565b60405180910390f35b6103da60048036038101906103d591906123e6565b610cd9565b6040516103e79190611e3e565b60405180910390f35b61040a60048036038101906104059190612089565b610d6d565b005b60007f80ac58cd000000000000000000000000000000000000000000000000000000007bffffffffffffffffffffffffffffffffffffffffffffffffffffffff1916827bffffffffffffffffffffffffffffffffffffffffffffffffffffffff191614806104d757507f5b5e139f000000000000000000000000000000000000000000000000000000007bffffffffffffffffffffffffffffffffffffffffffffffffffffffff1916827bffffffffffffffffffffffffffffffffffffffffffffffffffffffff1916145b806104e757506104e682610df3565b5b9050919050565b6060600080546104fd90612455565b80601f016020809104026020016040519081016040528092919081815260200182805461052990612455565b80156105765780601f1061054b57610100808354040283529160200191610576565b820191906000526020600020905b81548152906001019060200180831161055957829003601f168201915b5050505050905090565b600061058b82610e5d565b5061059582610ee5565b9050919050565b6105ae82826105a9610f22565b610f2a565b5050565b600073ffffffffffffffffffffffffffffffffffffffff168273ffffffffffffffffffffffffffffffffffffffff16036106245760006040517f64a0ae9200000000000000000000000000000000000000000000000000000000815260040161061b9190611faf565b60405180910390fd5b60006106388383610633610f22565b610f3c565b90508373ffffffffffffffffffffffffffffffffffffffff168173ffffffffffffffffffffffffffffffffffffffff16146106ae578382826040517f64283d7b0000000000000000000000000000000000000000000000000000000081526004016106a593929190612486565b60405180910390fd5b50505050565b60006106be611009565b6000600960008473ffffffffffffffffffffffffffffffffffffffff1673ffffffffffffffffffffffffffffffffffffffff1681526020019081526020016000205414610740576040517f08c379a000000000000000000000000000000000000000000000000000000000815260040161073790612509565b60405180910390fd5b600060076000815461075190612558565b91905081905590506107638382611090565b80600960008573ffffffffffffffffffffffffffffffffffffffff1673ffffffffffffffffffffffffffffffffffffffff1681526020019081526020016000208190555060405180608001604052806000815260200160008152602001600081526020016064815250600860008381526020019081526020016000206000820151816000015560208201518160010155604082015181600201556060820151816003015590505080915050919050565b61082e83838360405180602001604052806000815250610c4b565b505050565b600061083e82610e5d565b9050919050565b60096020528060005260406000206000915090505481565b60008073ffffffffffffffffffffffffffffffffffffffff168273ffffffffffffffffffffffffffffffffffffffff16036108d05760006040517f89c62b640000000000000000000000000000000000000000000000000000000081526004016108c79190611faf565b60405180910390fd5b600360008373ffffffffffffffffffffffffffffffffffffffff1673ffffffffffffffffffffffffffffffffffffffff168152602001908152602001600020549050919050565b61091f611009565b61092960006110ae565b565b6000600660009054906101000a900473ffffffffffffffffffffffffffffffffffffffff16905090565b61095d611009565b6000600960008673ffffffffffffffffffffffffffffffffffffffff1673ffffffffffffffffffffffffffffffffffffffff168152602001908152602001600020549050600081036109e4576040517f08c379a00000000000000000000000000000000000000000000000000000000081526004016109db906125ec565b60405180910390fd5b6000600860008381526020019081526020016000209050806000016000815480929190610a1090612558565b91905055508415610a3657806001016000815480929190610a3090612558565b91905055505b83816002016000828254610a4a919061260c565b925050819055506000831315610a7a5782816003016000828254610a6e919061260c565b92505081905550610ac1565b600083610a8690612640565b90508082600301541115610ab45780826003016000828254610aa89190612688565b92505081905550610abf565b600082600301819055505b505b8573ffffffffffffffffffffffffffffffffffffffff167f80140d6bcee83a25999242a95412ea6b9754c623fc171e8d4c86c8392c053ad982600001548360010154604051610b119291906126bc565b60405180910390a28573ffffffffffffffffffffffffffffffffffffffff167ffc577563f1b9a0461e24abef1e1fcc0d33d3d881f20b5df6dda59de4aae2c8218260030154604051610b6391906120c5565b60405180910390a2505050505050565b606060018054610b8290612455565b80601f0160208091040260200160405190810160405280929190818152602001828054610bae90612455565b8015610bfb5780601f10610bd057610100808354040283529160200191610bfb565b820191906000526020600020905b815481529060010190602001808311610bde57829003601f168201915b5050505050905090565b610c17610c10610f22565b8383611174565b5050565b60086020528060005260406000206000915090508060000154908060010154908060020154908060030154905084565b610c568484846105b2565b610c6a610c61610f22565b858585856112e3565b50505050565b6060610c7b82610e5d565b506000610c86611494565b90506000815111610ca65760405180602001604052806000815250610cd1565b80610cb0846114ab565b604051602001610cc1929190612721565b6040516020818303038152906040525b915050919050565b6000600560008473ffffffffffffffffffffffffffffffffffffffff1673ffffffffffffffffffffffffffffffffffffffff16815260200190815260200160002060008373ffffffffffffffffffffffffffffffffffffffff1673ffffffffffffffffffffffffffffffffffffffff16815260200190815260200160002060009054906101000a900460ff16905092915050565b610d75611009565b600073ffffffffffffffffffffffffffffffffffffffff168173ffffffffffffffffffffffffffffffffffffffff1603610de75760006040517f1e4fbdf7000000000000000000000000000000000000000000000000000000008152600401610dde9190611faf565b60405180910390fd5b610df0816110ae565b50565b60007f01ffc9a7000000000000000000000000000000000000000000000000000000007bffffffffffffffffffffffffffffffffffffffffffffffffffffffff1916827bffffffffffffffffffffffffffffffffffffffffffffffffffffffff1916149050919050565b600080610e6983611579565b9050600073ffffffffffffffffffffffffffffffffffffffff168173ffffffffffffffffffffffffffffffffffffffff1603610edc57826040517f7e273289000000000000000000000000000000000000000000000000000000008152600401610ed391906120c5565b60405180910390fd5b80915050919050565b60006004600083815260200190815260200160002060009054906101000a900473ffffffffffffffffffffffffffffffffffffffff169050919050565b600033905090565b610f3783838360016115b6565b505050565b600080610f4884611579565b9050600073ffffffffffffffffffffffffffffffffffffffff168173ffffffffffffffffffffffffffffffffffffffff1614158015610fb45750600073ffffffffffffffffffffffffffffffffffffffff168573ffffffffffffffffffffffffffffffffffffffff1614155b15610ff4576040517f08c379a0000000000000000000000000000000000000000000000000000000008152600401610feb906127b7565b60405180910390fd5b610fff85858561177b565b9150509392505050565b611011610f22565b73ffffffffffffffffffffffffffffffffffffffff1661102f61092b565b73ffffffffffffffffffffffffffffffffffffffff161461108e57611052610f22565b6040517f118cdaa70000000000000000000000000000000000000000000000000000000081526004016110859190611faf565b60405180910390fd5b565b6110aa828260405180602001604052806000815250611995565b5050565b6000600660009054906101000a900473ffffffffffffffffffffffffffffffffffffffff16905081600660006101000a81548173ffffffffffffffffffffffffffffffffffffffff021916908373ffffffffffffffffffffffffffffffffffffffff1602179055508173ffffffffffffffffffffffffffffffffffffffff168173ffffffffffffffffffffffffffffffffffffffff167f8be0079c531659141344cd1fd0a4f28419497f9722a3daafe3b4186f6b6457e060405160405180910390a35050565b600073ffffffffffffffffffffffffffffffffffffffff168273ffffffffffffffffffffffffffffffffffffffff16036111e557816040517f5b08ba180000000000000000000000000000000000000000000000000000000081526004016111dc9190611faf565b60405180910390fd5b80600560008573ffffffffffffffffffffffffffffffffffffffff1673ffffffffffffffffffffffffffffffffffffffff16815260200190815260200160002060008473ffffffffffffffffffffffffffffffffffffffff1673ffffffffffffffffffffffffffffffffffffffff16815260200190815260200160002060006101000a81548160ff0219169083151502179055508173ffffffffffffffffffffffffffffffffffffffff168373ffffffffffffffffffffffffffffffffffffffff167f17307eab39ab6107e8899845ad3d59bd9653f200f220920489ca2b5937696c31836040516112d69190611e3e565b60405180910390a3505050565b60008373ffffffffffffffffffffffffffffffffffffffff163b111561148d578273ffffffffffffffffffffffffffffffffffffffff1663150b7a02868685856040518563ffffffff1660e01b8152600401611342949392919061282c565b6020604051808303816000875af192505050801561137e57506040513d601f19601f8201168201806040525081019061137b919061288d565b60015b611402573d80600081146113ae576040519150601f19603f3d011682016040523d82523d6000602084013e6113b3565b606091505b5060008151036113fa57836040517f64a0ae920000000000000000000000000000000000000000000000000000000081526004016113f19190611faf565b60405180910390fd5b805160208201fd5b63150b7a0260e01b7bffffffffffffffffffffffffffffffffffffffffffffffffffffffff1916817bffffffffffffffffffffffffffffffffffffffffffffffffffffffff19161461148b57836040517f64a0ae920000000000000000000000000000000000000000000000000000000081526004016114829190611faf565b60405180910390fd5b505b5050505050565b606060405180602001604052806000815250905090565b6060600060016114ba846119b9565b01905060008167ffffffffffffffff8111156114d9576114d8612238565b5b6040519080825280601f01601f19166020018201604052801561150b5781602001600182028036833780820191505090505b509050600082602083010190505b60011561156e578080600190039150507f3031323334353637383961626364656600000000000000000000000000000000600a86061a8153600a8581611562576115616128ba565b5b04945060008503611519575b819350505050919050565b60006002600083815260200190815260200160002060009054906101000a900473ffffffffffffffffffffffffffffffffffffffff169050919050565b80806115ef5750600073ffffffffffffffffffffffffffffffffffffffff168273ffffffffffffffffffffffffffffffffffffffff1614155b156117235760006115ff84610e5d565b9050600073ffffffffffffffffffffffffffffffffffffffff168373ffffffffffffffffffffffffffffffffffffffff161415801561166a57508273ffffffffffffffffffffffffffffffffffffffff168173ffffffffffffffffffffffffffffffffffffffff1614155b801561167d575061167b8184610cd9565b155b156116bf57826040517fa9fbf51f0000000000000000000000000000000000000000000000000000000081526004016116b69190611faf565b60405180910390fd5b811561172157838573ffffffffffffffffffffffffffffffffffffffff168273ffffffffffffffffffffffffffffffffffffffff167f8c5be1e5ebec7d5bd14f71427d1e84f3dd0314c0f7b2291e5b200ac8c7c3b92560405160405180910390a45b505b836004600085815260200190815260200160002060006101000a81548173ffffffffffffffffffffffffffffffffffffffff021916908373ffffffffffffffffffffffffffffffffffffffff16021790555050505050565b60008061178784611579565b9050600073ffffffffffffffffffffffffffffffffffffffff168373ffffffffffffffffffffffffffffffffffffffff16146117c9576117c8818486611b0c565b5b600073ffffffffffffffffffffffffffffffffffffffff168173ffffffffffffffffffffffffffffffffffffffff161461185a5761180b6000856000806115b6565b6001600360008373ffffffffffffffffffffffffffffffffffffffff1673ffffffffffffffffffffffffffffffffffffffff168152602001908152602001600020600082825403925050819055505b600073ffffffffffffffffffffffffffffffffffffffff168573ffffffffffffffffffffffffffffffffffffffff16146118dd576001600360008773ffffffffffffffffffffffffffffffffffffffff1673ffffffffffffffffffffffffffffffffffffffff168152602001908152602001600020600082825401925050819055505b846002600086815260200190815260200160002060006101000a81548173ffffffffffffffffffffffffffffffffffffffff021916908373ffffffffffffffffffffffffffffffffffffffff160217905550838573ffffffffffffffffffffffffffffffffffffffff168273ffffffffffffffffffffffffffffffffffffffff167fddf252ad1be2c89b69c2b068fc378daa952ba7f163c4a11628f55a4df523b3ef60405160405180910390a4809150509392505050565b61199f8383611bd0565b6119b46119aa610f22565b60008585856112e3565b505050565b600080600090507a184f03e93ff9f4daa797ed6e38ed64bf6a1f0100000000000000008310611a17577a184f03e93ff9f4daa797ed6e38ed64bf6a1f0100000000000000008381611a0d57611a0c6128ba565b5b0492506040810190505b6d04ee2d6d415b85acef81000000008310611a54576d04ee2d6d415b85acef81000000008381611a4a57611a496128ba565b5b0492506020810190505b662386f26fc100008310611a8357662386f26fc100008381611a7957611a786128ba565b5b0492506010810190505b6305f5e1008310611aac576305f5e1008381611aa257611aa16128ba565b5b0492506008810190505b6127108310611ad1576127108381611ac757611ac66128ba565b5b0492506004810190505b60648310611af45760648381611aea57611ae96128ba565b5b0492506002810190505b600a8310611b03576001810190505b80915050919050565b611b17838383611cc9565b611bcb57600073ffffffffffffffffffffffffffffffffffffffff168373ffffffffffffffffffffffffffffffffffffffff1603611b8c57806040517f7e273289000000000000000000000000000000000000000000000000000000008152600401611b8391906120c5565b60405180910390fd5b81816040517f177e802f000000000000000000000000000000000000000000000000000000008152600401611bc29291906128e9565b60405180910390fd5b505050565b600073ffffffffffffffffffffffffffffffffffffffff168273ffffffffffffffffffffffffffffffffffffffff1603611c425760006040517f64a0ae92000000000000000000000000000000000000000000000000000000008152600401611c399190611faf565b60405180910390fd5b6000611c5083836000610f3c565b9050600073ffffffffffffffffffffffffffffffffffffffff168173ffffffffffffffffffffffffffffffffffffffff1614611cc45760006040517f73c6ac6e000000000000000000000000000000000000000000000000000000008152600401611cbb9190611faf565b60405180910390fd5b505050565b60008073ffffffffffffffffffffffffffffffffffffffff168373ffffffffffffffffffffffffffffffffffffffff1614158015611d8157508273ffffffffffffffffffffffffffffffffffffffff168473ffffffffffffffffffffffffffffffffffffffff161480611d425750611d418484610cd9565b5b80611d8057508273ffffffffffffffffffffffffffffffffffffffff16611d6883610ee5565b73ffffffffffffffffffffffffffffffffffffffff16145b5b90509392505050565b6000604051905090565b600080fd5b600080fd5b60007fffffffff0000000000000000000000000000000000000000000000000000000082169050919050565b611dd381611d9e565b8114611dde57600080fd5b50565b600081359050611df081611dca565b92915050565b600060208284031215611e0c57611e0b611d94565b5b6000611e1a84828501611de1565b91505092915050565b60008115159050919050565b611e3881611e23565b82525050565b6000602082019050611e536000830184611e2f565b92915050565b600081519050919050565b600082825260208201905092915050565b60005b83811015611e93578082015181840152602081019050611e78565b60008484015250505050565b6000601f19601f8301169050919050565b6000611ebb82611e59565b611ec58185611e64565b9350611ed5818560208601611e75565b611ede81611e9f565b840191505092915050565b60006020820190508181036000830152611f038184611eb0565b905092915050565b6000819050919050565b611f1e81611f0b565b8114611f2957600080fd5b50565b600081359050611f3b81611f15565b92915050565b600060208284031215611f5757611f56611d94565b5b6000611f6584828501611f2c565b91505092915050565b600073ffffffffffffffffffffffffffffffffffffffff82169050919050565b6000611f9982611f6e565b9050919050565b611fa981611f8e565b82525050565b6000602082019050611fc46000830184611fa0565b92915050565b611fd381611f8e565b8114611fde57600080fd5b50565b600081359050611ff081611fca565b92915050565b6000806040838503121561200d5761200c611d94565b5b600061201b85828601611fe1565b925050602061202c85828601611f2c565b9150509250929050565b60008060006060848603121561204f5761204e611d94565b5b600061205d86828701611fe1565b935050602061206e86828701611fe1565b925050604061207f86828701611f2c565b9150509250925092565b60006020828403121561209f5761209e611d94565b5b60006120ad84828501611fe1565b91505092915050565b6120bf81611f0b565b82525050565b60006020820190506120da60008301846120b6565b92915050565b6120e981611e23565b81146120f457600080fd5b50565b600081359050612106816120e0565b92915050565b6000819050919050565b61211f8161210c565b811461212a57600080fd5b50565b60008135905061213c81612116565b92915050565b6000806000806080858703121561215c5761215b611d94565b5b600061216a87828801611fe1565b945050602061217b878288016120f7565b935050604061218c87828801611f2c565b925050606061219d8782880161212d565b91505092959194509250565b600080604083850312156121c0576121bf611d94565b5b60006121ce85828601611fe1565b92505060206121df858286016120f7565b9150509250929050565b60006080820190506121fe60008301876120b6565b61220b60208301866120b6565b61221860408301856120b6565b61222560608301846120b6565b95945050505050565b600080fd5b600080fd5b7f4e487b7100000000000000000000000000000000000000000000000000000000600052604160045260246000fd5b61227082611e9f565b810181811067ffffffffffffffff8211171561228f5761228e612238565b5b80604052505050565b60006122a2611d8a565b90506122ae8282612267565b919050565b600067ffffffffffffffff8211156122ce576122cd612238565b5b6122d782611e9f565b9050602081019050919050565b82818337600083830152505050565b6000612306612301846122b3565b612298565b90508281526020810184848401111561232257612321612233565b5b61232d8482856122e4565b509392505050565b600082601f83011261234a5761234961222e565b5b813561235a8482602086016122f3565b91505092915050565b6000806000806080858703121561237d5761237c611d94565b5b600061238b87828801611fe1565b945050602061239c87828801611fe1565b93505060406123ad87828801611f2c565b925050606085013567ffffffffffffffff8111156123ce576123cd611d99565b5b6123da87828801612335565b91505092959194509250565b600080604083850312156123fd576123fc611d94565b5b600061240b85828601611fe1565b925050602061241c85828601611fe1565b9150509250929050565b7f4e487b7100000000000000000000000000000000000000000000000000000000600052602260045260246000fd5b6000600282049050600182168061246d57607f821691505b6020821081036124805761247f612426565b5b50919050565b600060608201905061249b6000830186611fa0565b6124a860208301856120b6565b6124b56040830184611fa0565b949350505050565b7f506c6179657220616c72656164792068617320612070726f66696c6500000000600082015250565b60006124f3601c83611e64565b91506124fe826124bd565b602082019050919050565b60006020820190508181036000830152612522816124e6565b9050919050565b7f4e487b7100000000000000000000000000000000000000000000000000000000600052601160045260246000fd5b600061256382611f0b565b91507fffffffffffffffffffffffffffffffffffffffffffffffffffffffffffffffff820361259557612594612529565b5b600182019050919050565b7f506c6179657220686173206e6f2070726f66696c650000000000000000000000600082015250565b60006125d6601583611e64565b91506125e1826125a0565b602082019050919050565b60006020820190508181036000830152612605816125c9565b9050919050565b600061261782611f0b565b915061262283611f0b565b925082820190508082111561263a57612639612529565b5b92915050565b600061264b8261210c565b91507f8000000000000000000000000000000000000000000000000000000000000000820361267d5761267c612529565b5b816000039050919050565b600061269382611f0b565b915061269e83611f0b565b92508282039050818111156126b6576126b5612529565b5b92915050565b60006040820190506126d160008301856120b6565b6126de60208301846120b6565b9392505050565b600081905092915050565b60006126fb82611e59565b61270581856126e5565b9350612715818560208601611e75565b80840191505092915050565b600061272d82856126f0565b915061273982846126f0565b91508190509392505050565b7f52657075746174696f6e4e46543a20536f756c626f756e642c206e6f6e2d747260008201527f616e7366657261626c6500000000000000000000000000000000000000000000602082015250565b60006127a1602a83611e64565b91506127ac82612745565b604082019050919050565b600060208201905081810360008301526127d081612794565b9050919050565b600081519050919050565b600082825260208201905092915050565b60006127fe826127d7565b61280881856127e2565b9350612818818560208601611e75565b61282181611e9f565b840191505092915050565b60006080820190506128416000830187611fa0565b61284e6020830186611fa0565b61285b60408301856120b6565b818103606083015261286d81846127f3565b905095945050505050565b60008151905061288781611dca565b92915050565b6000602082840312156128a3576128a2611d94565b5b60006128b184828501612878565b91505092915050565b7f4e487b7100000000000000000000000000000000000000000000000000000000600052601260045260246000fd5b60006040820190506128fe6000830185611fa0565b61290b60208301846120b6565b939250505056fea2646970667358221220a63b1057d87238698bdffab7f210657c5b39b949ee606a642daef16ce74de3df64736f6c63430008180033",
  "linkReferences": {},
  "deployedLinkReferences": {}
}